{
  "abi": [
    {
      "type": "constructor",
      "inputs": [
        {
          "name": "_name",
          "type": "string",
          "internalType": "string"
        },
        {
          "name": "_symbol",
          "type": "string",
          "internalType": "string"
        },
        {
          "name": "_uri",
          "type": "string",
          "internalType": "string"
        },
        {
          "name": "_contractURI",
          "type": "string",
          "internalType": "string"
        },
        {
          "name": "_royaltyRecipient",
          "type": "address",
          "internalType": "address"
        },
        {
          "name": "_royaltyFee",
          "type": "uint96",
          "internalType": "uint96"
        },
        {
          "name": "appoveMarketplace",
          "type": "address",
          "internalType": "address"
        }
      ],
      "stateMutability": "nonpayable"
    },
    {
      "type": "function",
      "name": "balanceOf",
      "inputs": [
        {
          "name": "account",
          "type": "address",
          "internalType": "address"
        },
        {
          "name": "id",
          "type": "uint256",
          "internalType": "uint256"
        }
      ],
      "outputs": [
        {
          "name": "",
          "type": "uint256",
          "internalType": "uint256"
        }
      ],
      "stateMutability": "view"
    },
    {
      "type": "function",
      "name": "balanceOfBatch",
      "inputs": [
        {
          "name": "accounts",
          "type": "address[]",
          "internalType": "address[]"
        },
        {
          "name": "ids",
          "type": "uint256[]",
          "internalType": "uint256[]"
        }
      ],
      "outputs": [
        {
          "name": "",
          "type": "uint256[]",
          "internalType": "uint256[]"
        }
      ],
      "stateMutability": "view"
    },
    {
      "type": "function",
      "name": "burn",
      "inputs": [
        {
          "name": "from",
          "type": "address",
          "internalType": "address"
        },
        {
          "name": "id",
          "type": "uint256",
          "internalType": "uint256"
        },
        {
          "name": "amount",
          "type": "uint256",
          "internalType": "uint256"
        }
      ],
      "outputs": [],
      "stateMutability": "nonpayable"
    },
    {
      "type": "function",
      "name": "contractURI",
      "inputs": [],
      "outputs": [
        {
          "name": "",
          "type": "string",
          "internalType": "string"
        }
      ],
      "stateMutability": "view"
    },
    {
      "type": "function",
      "name": "exists",
      "inputs": [
        {
          "name": "id",
          "type": "uint256",
          "internalType": "uint256"
        }
      ],
      "outputs": [
        {
          "name": "",
          "type": "bool",
          "internalType": "bool"
        }
      ],
      "stateMutability": "view"
    },
    {
      "type": "function",
      "name": "isApprovedForAll",
      "inputs": [
        {
          "name": "account",
          "type": "address",
          "internalType": "address"
        },
        {
          "name": "operator",
          "type": "address",
          "internalType": "address"
        }
      ],
      "outputs": [
        {
          "name": "",
          "type": "bool",
          "internalType": "bool"
        }
      ],
      "stateMutability": "view"
    },
    {
      "type": "function",
      "name": "mint",
      "inputs": [
        {
          "name": "to",
          "type": "address",
          "internalType": "address"
        },
        {
          "name": "amount",
          "type": "uint256",
          "internalType": "uint256"
        },
        {
          "name": "cid",
          "type": "string",
          "internalType": "string"
        },
        {
          "name": "data",
          "type": "bytes",
          "internalType": "bytes"
        }
      ],
      "outputs": [],
      "stateMutability": "nonpayable"
    },
    {
      "type": "function",
      "name": "mintBatch",
      "inputs": [
        {
          "name": "to",
          "type": "address",
          "internalType": "address"
        },
        {
          "name": "amounts",
          "type": "uint256[]",
          "internalType": "uint256[]"
        },
        {
          "name": "data",
          "type": "bytes",
          "internalType": "bytes"
        }
      ],
      "outputs": [],
      "stateMutability": "nonpayable"
    },
    {
      "type": "function",
      "name": "name",
      "inputs": [],
      "outputs": [
        {
          "name": "",
          "type": "string",
          "internalType": "string"
        }
      ],
      "stateMutability": "view"
    },
    {
      "type": "function",
      "name": "owner",
      "inputs": [],
      "outputs": [
        {
          "name": "",
          "type": "address",
          "internalType": "address"
        }
      ],
      "stateMutability": "view"
    },
    {
      "type": "function",
      "name": "publicMint",
      "inputs": [
        {
          "name": "amount",
          "type": "uint256",
          "internalType": "uint256"
        }
      ],
      "outputs": [],
      "stateMutability": "payable"
    },
    {
      "type": "function",
      "name": "renounceOwnership",
      "inputs": [],
      "outputs": [],
      "stateMutability": "nonpayable"
    },
    {
      "type": "function",
      "name": "royaltyInfo",
      "inputs": [
        {
          "name": "tokenId",
          "type": "uint256",
          "internalType": "uint256"
        },
        {
          "name": "salePrice",
          "type": "uint256",
          "internalType": "uint256"
        }
      ],
      "outputs": [
        {
          "name": "receiver",
          "type": "address",
          "internalType": "address"
        },
        {
          "name": "amount",
          "type": "uint256",
          "internalType": "uint256"
        }
      ],
      "stateMutability": "view"
    },
    {
      "type": "function",
      "name": "safeBatchTransferFrom",
      "inputs": [
        {
          "name": "from",
          "type": "address",
          "internalType": "address"
        },
        {
          "name": "to",
          "type": "address",
          "internalType": "address"
        },
        {
          "name": "ids",
          "type": "uint256[]",
          "internalType": "uint256[]"
        },
        {
          "name": "values",
          "type": "uint256[]",
          "internalType": "uint256[]"
        },
        {
          "name": "data",
          "type": "bytes",
          "internalType": "bytes"
        }
      ],
      "outputs": [],
      "stateMutability": "nonpayable"
    },
    {
      "type": "function",
      "name": "safeTransferFrom",
      "inputs": [
        {
          "name": "from",
          "type": "address",
          "internalType": "address"
        },
        {
          "name": "to",
          "type": "address",
          "internalType": "address"
        },
        {
          "name": "id",
          "type": "uint256",
          "internalType": "uint256"
        },
        {
          "name": "value",
          "type": "uint256",
          "internalType": "uint256"
        },
        {
          "name": "data",
          "type": "bytes",
          "internalType": "bytes"
        }
      ],
      "outputs": [],
      "stateMutability": "nonpayable"
    },
    {
      "type": "function",
      "name": "setApprovalForAll",
      "inputs": [
        {
          "name": "operator",
          "type": "address",
          "internalType": "address"
        },
        {
          "name": "approved",
          "type": "bool",
          "internalType": "bool"
        }
      ],
      "outputs": [],
      "stateMutability": "nonpayable"
    },
    {
      "type": "function",
      "name": "setContractURI",
      "inputs": [
        {
          "name": "_contractURI",
          "type": "string",
          "internalType": "string"
        }
      ],
      "outputs": [],
      "stateMutability": "nonpayable"
    },
    {
      "type": "function",
      "name": "setRoyaltyInfo",
      "inputs": [
        {
          "name": "recipient",
          "type": "address",
          "internalType": "address"
        },
        {
          "name": "feeBasisPoints",
          "type": "uint96",
          "internalType": "uint96"
        }
      ],
      "outputs": [],
      "stateMutability": "nonpayable"
    },
    {
      "type": "function",
      "name": "setURI",
      "inputs": [
        {
          "name": "newUri",
          "type": "string",
          "internalType": "string"
        }
      ],
      "outputs": [],
      "stateMutability": "nonpayable"
    },
    {
      "type": "function",
      "name": "supportsInterface",
      "inputs": [
        {
          "name": "interfaceId",
          "type": "bytes4",
          "internalType": "bytes4"
        }
      ],
      "outputs": [
        {
          "name": "",
          "type": "bool",
          "internalType": "bool"
        }
      ],
      "stateMutability": "view"
    },
    {
      "type": "function",
      "name": "symbol",
      "inputs": [],
      "outputs": [
        {
          "name": "",
          "type": "string",
          "internalType": "string"
        }
      ],
      "stateMutability": "view"
    },
    {
      "type": "function",
      "name": "tokenBalance",
      "inputs": [
        {
          "name": "owner",
          "type": "address",
          "internalType": "address"
        },
        {
          "name": "id",
          "type": "uint256",
          "internalType": "uint256"
        }
      ],
      "outputs": [
        {
          "name": "",
          "type": "uint256",
          "internalType": "uint256"
        }
      ],
      "stateMutability": "view"
    },
    {
      "type": "function",
      "name": "totalSupply",
      "inputs": [],
      "outputs": [
        {
          "name": "",
          "type": "uint256",
          "internalType": "uint256"
        }
      ],
      "stateMutability": "view"
    },
    {
      "type": "function",
      "name": "totalSupply",
      "inputs": [
        {
          "name": "id",
          "type": "uint256",
          "internalType": "uint256"
        }
      ],
      "outputs": [
        {
          "name": "",
          "type": "uint256",
          "internalType": "uint256"
        }
      ],
      "stateMutability": "view"
    },
    {
      "type": "function",
      "name": "transferOwnership",
      "inputs": [
        {
          "name": "newOwner",
          "type": "address",
          "internalType": "address"
        }
      ],
      "outputs": [],
      "stateMutability": "nonpayable"
    },
    {
      "type": "function",
      "name": "uri",
      "inputs": [
        {
          "name": "tokenId",
          "type": "uint256",
          "internalType": "uint256"
        }
      ],
      "outputs": [
        {
          "name": "",
          "type": "string",
          "internalType": "string"
        }
      ],
      "stateMutability": "view"
    },
    {
      "type": "function",
      "name": "withdraw",
      "inputs": [],
      "outputs": [],
      "stateMutability": "nonpayable"
    },
    {
      "type": "event",
      "name": "ApprovalForAll",
      "inputs": [
        {
          "name": "account",
          "type": "address",
          "indexed": true,
          "internalType": "address"
        },
        {
          "name": "operator",
          "type": "address",
          "indexed": true,
          "internalType": "address"
        },
        {
          "name": "approved",
          "type": "bool",
          "indexed": false,
          "internalType": "bool"
        }
      ],
      "anonymous": false
    },
    {
      "type": "event",
      "name": "MetadataURIUpdated",
      "inputs": [
        {
          "name": "newUri",
          "type": "string",
          "indexed": false,
          "internalType": "string"
        }
      ],
      "anonymous": false
    },
    {
      "type": "event",
      "name": "OwnershipTransferred",
      "inputs": [
        {
          "name": "previousOwner",
          "type": "address",
          "indexed": true,
          "internalType": "address"
        },
        {
          "name": "newOwner",
          "type": "address",
          "indexed": true,
          "internalType": "address"
        }
      ],
      "anonymous": false
    },
    {
      "type": "event",
      "name": "RoyaltiesUpdated",
      "inputs": [
        {
          "name": "recipient",
          "type": "address",
          "indexed": false,
          "internalType": "address"
        },
        {
          "name": "feeBasisPoints",
          "type": "uint96",
          "indexed": false,
          "internalType": "uint96"
        }
      ],
      "anonymous": false
    },
    {
      "type": "event",
      "name": "TokenBurned",
      "inputs": [
        {
          "name": "from",
          "type": "address",
          "indexed": true,
          "internalType": "address"
        },
        {
          "name": "id",
          "type": "uint256",
          "indexed": false,
          "internalType": "uint256"
        },
        {
          "name": "amount",
          "type": "uint256",
          "indexed": false,
          "internalType": "uint256"
        }
      ],
      "anonymous": false
    },
    {
      "type": "event",
      "name": "TokenMinted",
      "inputs": [
        {
          "name": "to",
          "type": "address",
          "indexed": true,
          "internalType": "address"
        },
        {
          "name": "id",
          "type": "uint256",
          "indexed": false,
          "internalType": "uint256"
        },
        {
          "name": "amount",
          "type": "uint256",
          "indexed": false,
          "internalType": "uint256"
        }
      ],
      "anonymous": false
    },
    {
      "type": "event",
      "name": "TransferBatch",
      "inputs": [
        {
          "name": "operator",
          "type": "address",
          "indexed": true,
          "internalType": "address"
        },
        {
          "name": "from",
          "type": "address",
          "indexed": true,
          "internalType": "address"
        },
        {
          "name": "to",
          "type": "address",
          "indexed": true,
          "internalType": "address"
        },
        {
          "name": "ids",
          "type": "uint256[]",
          "indexed": false,
          "internalType": "uint256[]"
        },
        {
          "name": "values",
          "type": "uint256[]",
          "indexed": false,
          "internalType": "uint256[]"
        }
      ],
      "anonymous": false
    },
    {
      "type": "event",
      "name": "TransferSingle",
      "inputs": [
        {
          "name": "operator",
          "type": "address",
          "indexed": true,
          "internalType": "address"
        },
        {
          "name": "from",
          "type": "address",
          "indexed": true,
          "internalType": "address"
        },
        {
          "name": "to",
          "type": "address",
          "indexed": true,
          "internalType": "address"
        },
        {
          "name": "id",
          "type": "uint256",
          "indexed": false,
          "internalType": "uint256"
        },
        {
          "name": "value",
          "type": "uint256",
          "indexed": false,
          "internalType": "uint256"
        }
      ],
      "anonymous": false
    },
    {
      "type": "event",
      "name": "URI",
      "inputs": [
        {
          "name": "value",
          "type": "string",
          "indexed": false,
          "internalType": "string"
        },
        {
          "name": "id",
          "type": "uint256",
          "indexed": true,
          "internalType": "uint256"
        }
      ],
      "anonymous": false
    },
    {
      "type": "error",
      "name": "ERC1155InsufficientBalance",
      "inputs": [
        {
          "name": "sender",
          "type": "address",
          "internalType": "address"
        },
        {
          "name": "balance",
          "type": "uint256",
          "internalType": "uint256"
        },
        {
          "name": "needed",
          "type": "uint256",
          "internalType": "uint256"
        },
        {
          "name": "tokenId",
          "type": "uint256",
          "internalType": "uint256"
        }
      ]
    },
    {
      "type": "error",
      "name": "ERC1155InvalidApprover",
      "inputs": [
        {
          "name": "approver",
          "type": "address",
          "internalType": "address"
        }
      ]
    },
    {
      "type": "error",
      "name": "ERC1155InvalidArrayLength",
      "inputs": [
        {
          "name": "idsLength",
          "type": "uint256",
          "internalType": "uint256"
        },
        {
          "name": "valuesLength",
          "type": "uint256",
          "internalType": "uint256"
        }
      ]
    },
    {
      "type": "error",
      "name": "ERC1155InvalidOperator",
      "inputs": [
        {
          "name": "operator",
          "type": "address",
          "internalType": "address"
        }
      ]
    },
    {
      "type": "error",
      "name": "ERC1155InvalidReceiver",
      "inputs": [
        {
          "name": "receiver",
          "type": "address",
          "internalType": "address"
        }
      ]
    },
    {
      "type": "error",
      "name": "ERC1155InvalidSender",
      "inputs": [
        {
          "name": "sender",
          "type": "address",
          "internalType": "address"
        }
      ]
    },
    {
      "type": "error",
      "name": "ERC1155MissingApprovalForAll",
      "inputs": [
        {
          "name": "operator",
          "type": "address",
          "internalType": "address"
        },
        {
          "name": "owner",
          "type": "address",
          "internalType": "address"
        }
      ]
    },
    {
      "type": "error",
      "name": "ERC2981InvalidDefaultRoyalty",
      "inputs": [
        {
          "name": "numerator",
          "type": "uint256",
          "internalType": "uint256"
        },
        {
          "name": "denominator",
          "type": "uint256",
          "internalType": "uint256"
        }
      ]
    },
    {
      "type": "error",
      "name": "ERC2981InvalidDefaultRoyaltyReceiver",
      "inputs": [
        {
          "name": "receiver",
          "type": "address",
          "internalType": "address"
        }
      ]
    },
    {
      "type": "error",
      "name": "ERC2981InvalidTokenRoyalty",
      "inputs": [
        {
          "name": "tokenId",
          "type": "uint256",
          "internalType": "uint256"
        },
        {
          "name": "numerator",
          "type": "uint256",
          "internalType": "uint256"
        },
        {
          "name": "denominator",
          "type": "uint256",
          "internalType": "uint256"
        }
      ]
    },
    {
      "type": "error",
      "name": "ERC2981InvalidTokenRoyaltyReceiver",
      "inputs": [
        {
          "name": "tokenId",
          "type": "uint256",
          "internalType": "uint256"
        },
        {
          "name": "receiver",
          "type": "address",
          "internalType": "address"
        }
      ]
    },
    {
      "type": "error",
      "name": "OwnableInvalidOwner",
      "inputs": [
        {
          "name": "owner",
          "type": "address",
          "internalType": "address"
        }
      ]
    },
    {
      "type": "error",
      "name": "OwnableUnauthorizedAccount",
      "inputs": [
        {
          "name": "account",
          "type": "address",
          "internalType": "address"
        }
      ]
    },
    {
      "type": "error",
      "name": "ReentrancyGuardReentrantCall",
      "inputs": []
    }
  ],
  "bytecode": {
    "object": "0x60806040526001600f55348015610014575f5ffd5b50604051614a71380380614a7183398181016040528101906100369190610759565b3360405180602001604052805f8152506100558161014b60201b60201c565b505f73ffffffffffffffffffffffffffffffffffffffff168173ffffffffffffffffffffffffffffffffffffffff16036100c6575f6040517f1e4fbdf70000000000000000000000000000000000000000000000000000000081526004016100bd9190610875565b60405180910390fd5b6100d58161015e60201b60201c565b50600160068190555086600c90816100ed9190610a9e565b5085600d90816100fd9190610a9e565b5083600b908161010d9190610a9e565b5084600e908161011d9190610a9e565b5061012e838361022160201b60201c565b61013f8160016103c260201b60201c565b50505050505050610c06565b806002908161015a9190610a9e565b5050565b5f60055f9054906101000a900473ffffffffffffffffffffffffffffffffffffffff1690508160055f6101000a81548173ffffffffffffffffffffffffffffffffffffffff021916908373ffffffffffffffffffffffffffffffffffffffff1602179055508173ffffffffffffffffffffffffffffffffffffffff168173ffffffffffffffffffffffffffffffffffffffff167f8be0079c531659141344cd1fd0a4f28419497f9722a3daafe3b4186f6b6457e060405160405180910390a35050565b5f6102306103d660201b60201c565b6bffffffffffffffffffffffff16905080826bffffffffffffffffffffffff1611156102955781816040517f6f483d0900000000000000000000000000000000000000000000000000000000815260040161028c929190610bac565b60405180910390fd5b5f73ffffffffffffffffffffffffffffffffffffffff168373ffffffffffffffffffffffffffffffffffffffff1603610305575f6040517fb6d9900a0000000000000000000000000000000000000000000000000000000081526004016102fc9190610875565b60405180910390fd5b60405180604001604052808473ffffffffffffffffffffffffffffffffffffffff168152602001836bffffffffffffffffffffffff1681525060075f820151815f015f6101000a81548173ffffffffffffffffffffffffffffffffffffffff021916908373ffffffffffffffffffffffffffffffffffffffff1602179055506020820151815f0160146101000a8154816bffffffffffffffffffffffff02191690836bffffffffffffffffffffffff160217905550905050505050565b6103d282826103df60201b60201c565b5050565b5f612710905090565b6103fd6103f061040160201b60201c565b838361040860201b60201c565b5050565b5f33905090565b5f73ffffffffffffffffffffffffffffffffffffffff168273ffffffffffffffffffffffffffffffffffffffff1603610478575f6040517fced3e10000000000000000000000000000000000000000000000000000000000815260040161046f9190610875565b60405180910390fd5b8060015f8573ffffffffffffffffffffffffffffffffffffffff1673ffffffffffffffffffffffffffffffffffffffff1681526020019081526020015f205f8473ffffffffffffffffffffffffffffffffffffffff1673ffffffffffffffffffffffffffffffffffffffff1681526020019081526020015f205f6101000a81548160ff0219169083151502179055508173ffffffffffffffffffffffffffffffffffffffff168373ffffffffffffffffffffffffffffffffffffffff167f17307eab39ab6107e8899845ad3d59bd9653f200f220920489ca2b5937696c31836040516105649190610bed565b60405180910390a3505050565b5f604051905090565b5f5ffd5b5f5ffd5b5f5ffd5b5f5ffd5b5f601f19601f8301169050919050565b7f4e487b71000000000000000000000000000000000000000000000000000000005f52604160045260245ffd5b6105d08261058a565b810181811067ffffffffffffffff821117156105ef576105ee61059a565b5b80604052505050565b5f610601610571565b905061060d82826105c7565b919050565b5f67ffffffffffffffff82111561062c5761062b61059a565b5b6106358261058a565b9050602081019050919050565b8281835e5f83830152505050565b5f61066261065d84610612565b6105f8565b90508281526020810184848401111561067e5761067d610586565b5b610689848285610642565b509392505050565b5f82601f8301126106a5576106a4610582565b5b81516106b5848260208601610650565b91505092915050565b5f73ffffffffffffffffffffffffffffffffffffffff82169050919050565b5f6106e7826106be565b9050919050565b6106f7816106dd565b8114610701575f5ffd5b50565b5f81519050610712816106ee565b92915050565b5f6bffffffffffffffffffffffff82169050919050565b61073881610718565b8114610742575f5ffd5b50565b5f815190506107538161072f565b92915050565b5f5f5f5f5f5f5f60e0888a0312156107745761077361057a565b5b5f88015167ffffffffffffffff8111156107915761079061057e565b5b61079d8a828b01610691565b975050602088015167ffffffffffffffff8111156107be576107bd61057e565b5b6107ca8a828b01610691565b965050604088015167ffffffffffffffff8111156107eb576107ea61057e565b5b6107f78a828b01610691565b955050606088015167ffffffffffffffff8111156108185761081761057e565b5b6108248a828b01610691565b94505060806108358a828b01610704565b93505060a06108468a828b01610745565b92505060c06108578a828b01610704565b91505092959891949750929550565b61086f816106dd565b82525050565b5f6020820190506108885f830184610866565b92915050565b5f81519050919050565b7f4e487b71000000000000000000000000000000000000000000000000000000005f52602260045260245ffd5b5f60028204905060018216806108dc57607f821691505b6020821081036108ef576108ee610898565b5b50919050565b5f819050815f5260205f209050919050565b5f6020601f8301049050919050565b5f82821b905092915050565b5f600883026109517fffffffffffffffffffffffffffffffffffffffffffffffffffffffffffffffff82610916565b61095b8683610916565b95508019841693508086168417925050509392505050565b5f819050919050565b5f819050919050565b5f61099f61099a61099584610973565b61097c565b610973565b9050919050565b5f819050919050565b6109b883610985565b6109cc6109c4826109a6565b848454610922565b825550505050565b5f5f905090565b6109e36109d4565b6109ee8184846109af565b505050565b5b81811015610a1157610a065f826109db565b6001810190506109f4565b5050565b601f821115610a5657610a27816108f5565b610a3084610907565b81016020851015610a3f578190505b610a53610a4b85610907565b8301826109f3565b50505b505050565b5f82821c905092915050565b5f610a765f1984600802610a5b565b1980831691505092915050565b5f610a8e8383610a67565b9150826002028217905092915050565b610aa78261088e565b67ffffffffffffffff811115610ac057610abf61059a565b5b610aca82546108c5565b610ad5828285610a15565b5f60209050601f831160018114610b06575f8415610af4578287015190505b610afe8582610a83565b865550610b65565b601f198416610b14866108f5565b5f5b82811015610b3b57848901518255600182019150602085019450602081019050610b16565b86831015610b585784890151610b54601f891682610a67565b8355505b6001600288020188555050505b505050505050565b5f610b87610b82610b7d84610718565b61097c565b610973565b9050919050565b610b9781610b6d565b82525050565b610ba681610973565b82525050565b5f604082019050610bbf5f830185610b8e565b610bcc6020830184610b9d565b9392505050565b5f8115159050919050565b610be781610bd3565b82525050565b5f602082019050610c005f830184610bde565b92915050565b613e5e80610c135f395ff3fe60806040526004361061019a575f3560e01c80634f558e79116100eb578063bd85b03911610089578063e985e9c511610063578063e985e9c5146105b1578063f242432a146105ed578063f2fde38b14610615578063f5298aca1461063d5761019a565b8063bd85b03914610523578063d2b04fd61461055f578063e8a3d485146105875761019a565b80638da5cb5b116100c55780638da5cb5b1461047f578063938e3d7b146104a957806395d89b41146104d1578063a22cb465146104fb5761019a565b80634f558e79146103f15780636a55fff51461042d578063715018a6146104695761019a565b806318160ddd116101585780632db11544116101325780632db115441461035b5780632eb2c2d6146103775780633ccfd60b1461039f5780634e1273f4146103b55761019a565b806318160ddd146102cc57806322862482146102f65780632a55205a1461031e5761019a565b8062fdd58e1461019e57806301ffc9a7146101da57806302fa7c471461021657806302fe53051461023e57806306fdde03146102665780630e89341c14610290575b5f5ffd5b3480156101a9575f5ffd5b506101c460048036038101906101bf9190612909565b610665565b6040516101d19190612956565b60405180910390f35b3480156101e5575f5ffd5b5061020060048036038101906101fb91906129c4565b6106ba565b60405161020d9190612a09565b60405180910390f35b348015610221575f5ffd5b5061023c60048036038101906102379190612a63565b6106cb565b005b348015610249575f5ffd5b50610264600480360381019061025f9190612bdd565b61071a565b005b348015610271575f5ffd5b5061027a610765565b6040516102879190612c84565b60405180910390f35b34801561029b575f5ffd5b506102b660048036038101906102b19190612ca4565b6107f1565b6040516102c39190612c84565b60405180910390f35b3480156102d7575f5ffd5b506102e061082d565b6040516102ed9190612956565b60405180910390f35b348015610301575f5ffd5b5061031c60048036038101906103179190612e31565b610836565b005b348015610329575f5ffd5b50610344600480360381019061033f9190612eb9565b610a22565b604051610352929190612f06565b60405180910390f35b61037560048036038101906103709190612ca4565b610b44565b005b348015610382575f5ffd5b5061039d60048036038101906103989190612f2d565b610c70565b005b3480156103aa575f5ffd5b506103b3610d17565b005b3480156103c0575f5ffd5b506103db60048036038101906103d691906130b8565b610deb565b6040516103e891906131e5565b60405180910390f35b3480156103fc575f5ffd5b5061041760048036038101906104129190612ca4565b610ef5565b6040516104249190612a09565b60405180910390f35b348015610438575f5ffd5b50610453600480360381019061044e9190612909565b610f08565b6040516104609190612956565b60405180910390f35b348015610474575f5ffd5b5061047d610f1b565b005b34801561048a575f5ffd5b50610493610f2e565b6040516104a09190613205565b60405180910390f35b3480156104b4575f5ffd5b506104cf60048036038101906104ca9190612bdd565b610f56565b005b3480156104dc575f5ffd5b506104e5610f71565b6040516104f29190612c84565b60405180910390f35b348015610506575f5ffd5b50610521600480360381019061051c9190613248565b610ffd565b005b34801561052e575f5ffd5b5061054960048036038101906105449190612ca4565b61100b565b6040516105569190612956565b60405180910390f35b34801561056a575f5ffd5b5061058560048036038101906105809190613286565b611025565b005b348015610592575f5ffd5b5061059b61111b565b6040516105a89190612c84565b60405180910390f35b3480156105bc575f5ffd5b506105d760048036038101906105d29190613322565b6111a7565b6040516105e49190612a09565b60405180910390f35b3480156105f8575f5ffd5b50610613600480360381019061060e9190613360565b611235565b005b348015610620575f5ffd5b5061063b600480360381019061063691906133f3565b6112dc565b005b348015610648575f5ffd5b50610663600480360381019061065e919061341e565b611360565b005b5f5f5f8381526020019081526020015f205f8473ffffffffffffffffffffffffffffffffffffffff1673ffffffffffffffffffffffffffffffffffffffff1681526020019081526020015f2054905092915050565b5f6106c48261148f565b9050919050565b6106d3611508565b6106dd828261158f565b7f0587c41e09c745126dcdaf3e17a7ff985ea275f1da6101ff247d214e99c0c919828260405161070e92919061347d565b60405180910390a15050565b610722611508565b61072b8161172a565b7fefafb90526da1636e1335eac0151301742fb755d986954c613b90e891778ba398160405161075a9190612c84565b60405180910390a150565b600c8054610772906134d1565b80601f016020809104026020016040519081016040528092919081815260200182805461079e906134d1565b80156107e95780601f106107c0576101008083540402835291602001916107e9565b820191905f5260205f20905b8154815290600101906020018083116107cc57829003601f168201915b505050505081565b6060600e60095f8481526020019081526020015f2060405160200161081792919061359d565b6040516020818303038152906040529050919050565b5f600454905090565b61083e611508565b5f825167ffffffffffffffff81111561085a57610859612ab9565b5b6040519080825280602002602001820160405280156108885781602001602082028036833780820191505090505b5090505f5f90505b83518110156108d35780600f546108a791906135ed565b8282815181106108ba576108b9613620565b5b6020026020010181815250508080600101915050610890565b506108e08482858561173d565b5f5f90505b8151811015610a02578473ffffffffffffffffffffffffffffffffffffffff167f96234cb3d6c373a1aaa06497a540bc166d4b0359243a088eaf95e21d7253d0be83838151811061093957610938613620565b5b602002602001015186848151811061095457610953613620565b5b602002602001015160405161096a92919061364d565b60405180910390a2601182828151811061098757610986613620565b5b6020026020010151908060018154018082558091505060019003905f5260205f20015f90919091909150556001600a5f8484815181106109ca576109c9613620565b5b602002602001015181526020019081526020015f205f6101000a81548160ff02191690831515021790555080806001019150506108e5565b508251600f5f828254610a1591906135ed565b9250508190555050505050565b5f5f5f60085f8681526020019081526020015f2090505f815f015f9054906101000a900473ffffffffffffffffffffffffffffffffffffffff1690505f825f0160149054906101000a90046bffffffffffffffffffffffff1690505f73ffffffffffffffffffffffffffffffffffffffff168273ffffffffffffffffffffffffffffffffffffffff1603610af65760075f015f9054906101000a900473ffffffffffffffffffffffffffffffffffffffff16915060075f0160149054906101000a90046bffffffffffffffffffffffff1690505b5f610aff6117c0565b6bffffffffffffffffffffffff16826bffffffffffffffffffffffff1688610b279190613674565b610b3191906136e2565b9050828195509550505050509250929050565b610b4c6117c9565b5f8103610b8e576040517f08c379a0000000000000000000000000000000000000000000000000000000008152600401610b8590613782565b60405180910390fd5b5f600f549050610bae33828460405180602001604052805f81525061180f565b601181908060018154018082558091505060019003905f5260205f20015f90919091909150556001600a5f8381526020019081526020015f205f6101000a81548160ff0219169083151502179055503373ffffffffffffffffffffffffffffffffffffffff167f96234cb3d6c373a1aaa06497a540bc166d4b0359243a088eaf95e21d7253d0be8284604051610c4592919061364d565b60405180910390a2600f5f815480929190610c5f906137a0565b919050555050610c6d6118a4565b50565b5f610c796118ae565b90508073ffffffffffffffffffffffffffffffffffffffff168673ffffffffffffffffffffffffffffffffffffffff1614158015610cbe5750610cbc86826111a7565b155b15610d025780866040517fe237d922000000000000000000000000000000000000000000000000000000008152600401610cf99291906137e7565b60405180910390fd5b610d0f86868686866118b5565b505050505050565b610d1f611508565b610d276117c9565b5f610d30610f2e565b90505f4790505f8273ffffffffffffffffffffffffffffffffffffffff1682604051610d5b9061383b565b5f6040518083038185875af1925050503d805f8114610d95576040519150601f19603f3d011682016040523d82523d5f602084013e610d9a565b606091505b5050905080610dde576040517f08c379a0000000000000000000000000000000000000000000000000000000008152600401610dd590613899565b60405180910390fd5b505050610de96118a4565b565b60608151835114610e3757815183516040517f5b059991000000000000000000000000000000000000000000000000000000008152600401610e2e92919061364d565b60405180910390fd5b5f835167ffffffffffffffff811115610e5357610e52612ab9565b5b604051908082528060200260200182016040528015610e815781602001602082028036833780820191505090505b5090505f5f90505b8451811015610eea57610ec0610ea882876119a990919063ffffffff16565b610ebb83876119bc90919063ffffffff16565b610665565b828281518110610ed357610ed2613620565b5b602002602001018181525050806001019050610e89565b508091505092915050565b5f5f610f008361100b565b119050919050565b5f610f138383610665565b905092915050565b610f23611508565b610f2c5f6119cf565b565b5f60055f9054906101000a900473ffffffffffffffffffffffffffffffffffffffff16905090565b610f5e611508565b80600b9081610f6d9190613a45565b5050565b600d8054610f7e906134d1565b80601f0160208091040260200160405190810160405280929190818152602001828054610faa906134d1565b8015610ff55780601f10610fcc57610100808354040283529160200191610ff5565b820191905f5260205f20905b815481529060010190602001808311610fd857829003601f168201915b505050505081565b6110078282611a92565b5050565b5f60035f8381526020019081526020015f20549050919050565b61102d611508565b5f600f54905061103f8582868561180f565b601181908060018154018082558091505060019003905f5260205f20015f90919091909150556001600a5f8381526020019081526020015f205f6101000a81548160ff0219169083151502179055508260095f8381526020019081526020015f2090816110ac9190613a45565b508473ffffffffffffffffffffffffffffffffffffffff167f96234cb3d6c373a1aaa06497a540bc166d4b0359243a088eaf95e21d7253d0be82866040516110f592919061364d565b60405180910390a2600f5f81548092919061110f906137a0565b91905055505050505050565b600b8054611128906134d1565b80601f0160208091040260200160405190810160405280929190818152602001828054611154906134d1565b801561119f5780601f106111765761010080835404028352916020019161119f565b820191905f5260205f20905b81548152906001019060200180831161118257829003601f168201915b505050505081565b5f60015f8473ffffffffffffffffffffffffffffffffffffffff1673ffffffffffffffffffffffffffffffffffffffff1681526020019081526020015f205f8373ffffffffffffffffffffffffffffffffffffffff1673ffffffffffffffffffffffffffffffffffffffff1681526020019081526020015f205f9054906101000a900460ff16905092915050565b5f61123e6118ae565b90508073ffffffffffffffffffffffffffffffffffffffff168673ffffffffffffffffffffffffffffffffffffffff1614158015611283575061128186826111a7565b155b156112c75780866040517fe237d9220000000000000000000000000000000000000000000000000000000081526004016112be9291906137e7565b60405180910390fd5b6112d48686868686611aa8565b505050505050565b6112e4611508565b5f73ffffffffffffffffffffffffffffffffffffffff168173ffffffffffffffffffffffffffffffffffffffff1603611354575f6040517f1e4fbdf700000000000000000000000000000000000000000000000000000000815260040161134b9190613205565b60405180910390fd5b61135d816119cf565b50565b5f81116113a2576040517f08c379a000000000000000000000000000000000000000000000000000000000815260040161139990613b5e565b60405180910390fd5b6113aa6118ae565b73ffffffffffffffffffffffffffffffffffffffff168373ffffffffffffffffffffffffffffffffffffffff1614806113f057506113ef836113ea6118ae565b6111a7565b5b61142f576040517f08c379a000000000000000000000000000000000000000000000000000000000815260040161142690613bec565b60405180910390fd5b61143a838383611bae565b8273ffffffffffffffffffffffffffffffffffffffff167fde3ca466246b0da455138dbea78dacd91d3c40dc98d5846ff0193bf67c24b0e7838360405161148292919061364d565b60405180910390a2505050565b5f7f2a55205a000000000000000000000000000000000000000000000000000000007bffffffffffffffffffffffffffffffffffffffffffffffffffffffff1916827bffffffffffffffffffffffffffffffffffffffffffffffffffffffff19161480611501575061150082611c50565b5b9050919050565b6115106118ae565b73ffffffffffffffffffffffffffffffffffffffff1661152e610f2e565b73ffffffffffffffffffffffffffffffffffffffff161461158d576115516118ae565b6040517f118cdaa70000000000000000000000000000000000000000000000000000000081526004016115849190613205565b60405180910390fd5b565b5f6115986117c0565b6bffffffffffffffffffffffff16905080826bffffffffffffffffffffffff1611156115fd5781816040517f6f483d090000000000000000000000000000000000000000000000000000000081526004016115f4929190613c3a565b60405180910390fd5b5f73ffffffffffffffffffffffffffffffffffffffff168373ffffffffffffffffffffffffffffffffffffffff160361166d575f6040517fb6d9900a0000000000000000000000000000000000000000000000000000000081526004016116649190613205565b60405180910390fd5b60405180604001604052808473ffffffffffffffffffffffffffffffffffffffff168152602001836bffffffffffffffffffffffff1681525060075f820151815f015f6101000a81548173ffffffffffffffffffffffffffffffffffffffff021916908373ffffffffffffffffffffffffffffffffffffffff1602179055506020820151815f0160146101000a8154816bffffffffffffffffffffffff02191690836bffffffffffffffffffffffff160217905550905050505050565b80600290816117399190613a45565b5050565b5f73ffffffffffffffffffffffffffffffffffffffff168473ffffffffffffffffffffffffffffffffffffffff16036117ad575f6040517f57f447ce0000000000000000000000000000000000000000000000000000000081526004016117a49190613205565b60405180910390fd5b6117ba5f85858585611d31565b50505050565b5f612710905090565b600260065403611805576040517f3ee5aeb500000000000000000000000000000000000000000000000000000000815260040160405180910390fd5b6002600681905550565b5f73ffffffffffffffffffffffffffffffffffffffff168473ffffffffffffffffffffffffffffffffffffffff160361187f575f6040517f57f447ce0000000000000000000000000000000000000000000000000000000081526004016118769190613205565b60405180910390fd5b5f5f61188b8585611ddd565b9150915061189c5f87848487611d31565b505050505050565b6001600681905550565b5f33905090565b5f73ffffffffffffffffffffffffffffffffffffffff168473ffffffffffffffffffffffffffffffffffffffff1603611925575f6040517f57f447ce00000000000000000000000000000000000000000000000000000000815260040161191c9190613205565b60405180910390fd5b5f73ffffffffffffffffffffffffffffffffffffffff168573ffffffffffffffffffffffffffffffffffffffff1603611995575f6040517f01a8351400000000000000000000000000000000000000000000000000000000815260040161198c9190613205565b60405180910390fd5b6119a28585858585611d31565b5050505050565b5f60208202602084010151905092915050565b5f60208202602084010151905092915050565b5f60055f9054906101000a900473ffffffffffffffffffffffffffffffffffffffff1690508160055f6101000a81548173ffffffffffffffffffffffffffffffffffffffff021916908373ffffffffffffffffffffffffffffffffffffffff1602179055508173ffffffffffffffffffffffffffffffffffffffff168173ffffffffffffffffffffffffffffffffffffffff167f8be0079c531659141344cd1fd0a4f28419497f9722a3daafe3b4186f6b6457e060405160405180910390a35050565b611aa4611a9d6118ae565b8383611e0d565b5050565b5f73ffffffffffffffffffffffffffffffffffffffff168473ffffffffffffffffffffffffffffffffffffffff1603611b18575f6040517f57f447ce000000000000000000000000000000000000000000000000000000008152600401611b0f9190613205565b60405180910390fd5b5f73ffffffffffffffffffffffffffffffffffffffff168573ffffffffffffffffffffffffffffffffffffffff1603611b88575f6040517f01a83514000000000000000000000000000000000000000000000000000000008152600401611b7f9190613205565b60405180910390fd5b5f5f611b948585611ddd565b91509150611ba58787848487611d31565b50505050505050565b5f73ffffffffffffffffffffffffffffffffffffffff168373ffffffffffffffffffffffffffffffffffffffff1603611c1e575f6040517f01a83514000000000000000000000000000000000000000000000000000000008152600401611c159190613205565b60405180910390fd5b5f5f611c2a8484611ddd565b91509150611c49855f848460405180602001604052805f815250611d31565b5050505050565b5f7fd9b67a26000000000000000000000000000000000000000000000000000000007bffffffffffffffffffffffffffffffffffffffffffffffffffffffff1916827bffffffffffffffffffffffffffffffffffffffffffffffffffffffff19161480611d1a57507f0e89341c000000000000000000000000000000000000000000000000000000007bffffffffffffffffffffffffffffffffffffffffffffffffffffffff1916827bffffffffffffffffffffffffffffffffffffffffffffffffffffffff1916145b80611d2a5750611d2982611f76565b5b9050919050565b611d3d85858585611fdf565b5f73ffffffffffffffffffffffffffffffffffffffff168473ffffffffffffffffffffffffffffffffffffffff1614611dd6575f611d796118ae565b90506001845103611dc5575f611d985f866119bc90919063ffffffff16565b90505f611dae5f866119bc90919063ffffffff16565b9050611dbe838989858589611ff1565b5050611dd4565b611dd38187878787876121a0565b5b505b5050505050565b60608060405191506001825283602083015260408201905060018152826020820152604081016040529250929050565b5f73ffffffffffffffffffffffffffffffffffffffff168273ffffffffffffffffffffffffffffffffffffffff1603611e7d575f6040517fced3e100000000000000000000000000000000000000000000000000000000008152600401611e749190613205565b60405180910390fd5b8060015f8573ffffffffffffffffffffffffffffffffffffffff1673ffffffffffffffffffffffffffffffffffffffff1681526020019081526020015f205f8473ffffffffffffffffffffffffffffffffffffffff1673ffffffffffffffffffffffffffffffffffffffff1681526020019081526020015f205f6101000a81548160ff0219169083151502179055508173ffffffffffffffffffffffffffffffffffffffff168373ffffffffffffffffffffffffffffffffffffffff167f17307eab39ab6107e8899845ad3d59bd9653f200f220920489ca2b5937696c3183604051611f699190612a09565b60405180910390a3505050565b5f7f01ffc9a7000000000000000000000000000000000000000000000000000000007bffffffffffffffffffffffffffffffffffffffffffffffffffffffff1916827bffffffffffffffffffffffffffffffffffffffffffffffffffffffff1916149050919050565b611feb8484848461234f565b50505050565b5f8473ffffffffffffffffffffffffffffffffffffffff163b1115612198578373ffffffffffffffffffffffffffffffffffffffff1663f23a6e6187878686866040518663ffffffff1660e01b8152600401612051959493929190613cb3565b6020604051808303815f875af192505050801561208c57506040513d601f19601f820116820180604052508101906120899190613d1f565b60015b61210d573d805f81146120ba576040519150601f19603f3d011682016040523d82523d5f602084013e6120bf565b606091505b505f81510361210557846040517f57f447ce0000000000000000000000000000000000000000000000000000000081526004016120fc9190613205565b60405180910390fd5b805181602001fd5b63f23a6e6160e01b7bffffffffffffffffffffffffffffffffffffffffffffffffffffffff1916817bffffffffffffffffffffffffffffffffffffffffffffffffffffffff19161461219657846040517f57f447ce00000000000000000000000000000000000000000000000000000000815260040161218d9190613205565b60405180910390fd5b505b505050505050565b5f8473ffffffffffffffffffffffffffffffffffffffff163b1115612347578373ffffffffffffffffffffffffffffffffffffffff1663bc197c8187878686866040518663ffffffff1660e01b8152600401612200959493929190613d4a565b6020604051808303815f875af192505050801561223b57506040513d601f19601f820116820180604052508101906122389190613d1f565b60015b6122bc573d805f8114612269576040519150601f19603f3d011682016040523d82523d5f602084013e61226e565b606091505b505f8151036122b457846040517f57f447ce0000000000000000000000000000000000000000000000000000000081526004016122ab9190613205565b60405180910390fd5b805181602001fd5b63bc197c8160e01b7bffffffffffffffffffffffffffffffffffffffffffffffffffffffff1916817bffffffffffffffffffffffffffffffffffffffffffffffffffffffff19161461234557846040517f57f447ce00000000000000000000000000000000000000000000000000000000815260040161233c9190613205565b60405180910390fd5b505b505050505050565b61235b848484846124d8565b5f73ffffffffffffffffffffffffffffffffffffffff168473ffffffffffffffffffffffffffffffffffffffff1603612424575f5f90505f5f90505b8351811015612409575f6123b482856119bc90919063ffffffff16565b90508060035f6123cd85896119bc90919063ffffffff16565b81526020019081526020015f205f8282546123e891906135ed565b9250508190555080836123fb91906135ed565b925050806001019050612397565b508060045f82825461241b91906135ed565b92505081905550505b5f73ffffffffffffffffffffffffffffffffffffffff168373ffffffffffffffffffffffffffffffffffffffff16036124d2575f5f90505f5f90505b83518110156124c0575f61247d82856119bc90919063ffffffff16565b90508060035f61249685896119bc90919063ffffffff16565b81526020019081526020015f205f8282540392505081905550808301925050806001019050612460565b508060045f8282540392505081905550505b50505050565b805182511461252257815181516040517f5b05999100000000000000000000000000000000000000000000000000000000815260040161251992919061364d565b60405180910390fd5b5f61252b6118ae565b90505f5f90505b835181101561272a575f61254f82866119bc90919063ffffffff16565b90505f61256583866119bc90919063ffffffff16565b90505f73ffffffffffffffffffffffffffffffffffffffff168873ffffffffffffffffffffffffffffffffffffffff1614612688575f5f5f8481526020019081526020015f205f8a73ffffffffffffffffffffffffffffffffffffffff1673ffffffffffffffffffffffffffffffffffffffff1681526020019081526020015f205490508181101561263457888183856040517f03dee4c500000000000000000000000000000000000000000000000000000000815260040161262b9493929190613db0565b60405180910390fd5b8181035f5f8581526020019081526020015f205f8b73ffffffffffffffffffffffffffffffffffffffff1673ffffffffffffffffffffffffffffffffffffffff1681526020019081526020015f2081905550505b5f73ffffffffffffffffffffffffffffffffffffffff168773ffffffffffffffffffffffffffffffffffffffff161461271d57805f5f8481526020019081526020015f205f8973ffffffffffffffffffffffffffffffffffffffff1673ffffffffffffffffffffffffffffffffffffffff1681526020019081526020015f205f82825461271591906135ed565b925050819055505b5050806001019050612532565b5060018351036127e5575f6127485f856119bc90919063ffffffff16565b90505f61275e5f856119bc90919063ffffffff16565b90508573ffffffffffffffffffffffffffffffffffffffff168773ffffffffffffffffffffffffffffffffffffffff168473ffffffffffffffffffffffffffffffffffffffff167fc3d58168c5ae7397731d063d5bbf3d657854427343f4c083240f7aacaa2d0f6285856040516127d692919061364d565b60405180910390a45050612864565b8373ffffffffffffffffffffffffffffffffffffffff168573ffffffffffffffffffffffffffffffffffffffff168273ffffffffffffffffffffffffffffffffffffffff167f4a39dc06d4c0dbc64b70af90fd698a233a518aa5d07e595d983b8c0526c8f7fb868660405161285b929190613df3565b60405180910390a45b5050505050565b5f604051905090565b5f5ffd5b5f5ffd5b5f73ffffffffffffffffffffffffffffffffffffffff82169050919050565b5f6128a58261287c565b9050919050565b6128b58161289b565b81146128bf575f5ffd5b50565b5f813590506128d0816128ac565b92915050565b5f819050919050565b6128e8816128d6565b81146128f2575f5ffd5b50565b5f81359050612903816128df565b92915050565b5f5f6040838503121561291f5761291e612874565b5b5f61292c858286016128c2565b925050602061293d858286016128f5565b9150509250929050565b612950816128d6565b82525050565b5f6020820190506129695f830184612947565b92915050565b5f7fffffffff0000000000000000000000000000000000000000000000000000000082169050919050565b6129a38161296f565b81146129ad575f5ffd5b50565b5f813590506129be8161299a565b92915050565b5f602082840312156129d9576129d8612874565b5b5f6129e6848285016129b0565b91505092915050565b5f8115159050919050565b612a03816129ef565b82525050565b5f602082019050612a1c5f8301846129fa565b92915050565b5f6bffffffffffffffffffffffff82169050919050565b612a4281612a22565b8114612a4c575f5ffd5b50565b5f81359050612a5d81612a39565b92915050565b5f5f60408385031215612a7957612a78612874565b5b5f612a86858286016128c2565b9250506020612a9785828601612a4f565b9150509250929050565b5f5ffd5b5f5ffd5b5f601f19601f8301169050919050565b7f4e487b71000000000000000000000000000000000000000000000000000000005f52604160045260245ffd5b612aef82612aa9565b810181811067ffffffffffffffff82111715612b0e57612b0d612ab9565b5b80604052505050565b5f612b2061286b565b9050612b2c8282612ae6565b919050565b5f67ffffffffffffffff821115612b4b57612b4a612ab9565b5b612b5482612aa9565b9050602081019050919050565b828183375f83830152505050565b5f612b81612b7c84612b31565b612b17565b905082815260208101848484011115612b9d57612b9c612aa5565b5b612ba8848285612b61565b509392505050565b5f82601f830112612bc457612bc3612aa1565b5b8135612bd4848260208601612b6f565b91505092915050565b5f60208284031215612bf257612bf1612874565b5b5f82013567ffffffffffffffff811115612c0f57612c0e612878565b5b612c1b84828501612bb0565b91505092915050565b5f81519050919050565b5f82825260208201905092915050565b8281835e5f83830152505050565b5f612c5682612c24565b612c608185612c2e565b9350612c70818560208601612c3e565b612c7981612aa9565b840191505092915050565b5f6020820190508181035f830152612c9c8184612c4c565b905092915050565b5f60208284031215612cb957612cb8612874565b5b5f612cc6848285016128f5565b91505092915050565b5f67ffffffffffffffff821115612ce957612ce8612ab9565b5b602082029050602081019050919050565b5f5ffd5b5f612d10612d0b84612ccf565b612b17565b90508083825260208201905060208402830185811115612d3357612d32612cfa565b5b835b81811015612d5c5780612d4888826128f5565b845260208401935050602081019050612d35565b5050509392505050565b5f82601f830112612d7a57612d79612aa1565b5b8135612d8a848260208601612cfe565b91505092915050565b5f67ffffffffffffffff821115612dad57612dac612ab9565b5b612db682612aa9565b9050602081019050919050565b5f612dd5612dd084612d93565b612b17565b905082815260208101848484011115612df157612df0612aa5565b5b612dfc848285612b61565b509392505050565b5f82601f830112612e1857612e17612aa1565b5b8135612e28848260208601612dc3565b91505092915050565b5f5f5f60608486031215612e4857612e47612874565b5b5f612e55868287016128c2565b935050602084013567ffffffffffffffff811115612e7657612e75612878565b5b612e8286828701612d66565b925050604084013567ffffffffffffffff811115612ea357612ea2612878565b5b612eaf86828701612e04565b9150509250925092565b5f5f60408385031215612ecf57612ece612874565b5b5f612edc858286016128f5565b9250506020612eed858286016128f5565b9150509250929050565b612f008161289b565b82525050565b5f604082019050612f195f830185612ef7565b612f266020830184612947565b9392505050565b5f5f5f5f5f60a08688031215612f4657612f45612874565b5b5f612f53888289016128c2565b9550506020612f64888289016128c2565b945050604086013567ffffffffffffffff811115612f8557612f84612878565b5b612f9188828901612d66565b935050606086013567ffffffffffffffff811115612fb257612fb1612878565b5b612fbe88828901612d66565b925050608086013567ffffffffffffffff811115612fdf57612fde612878565b5b612feb88828901612e04565b9150509295509295909350565b5f67ffffffffffffffff82111561301257613011612ab9565b5b602082029050602081019050919050565b5f61303561303084612ff8565b612b17565b9050808382526020820190506020840283018581111561305857613057612cfa565b5b835b81811015613081578061306d88826128c2565b84526020840193505060208101905061305a565b5050509392505050565b5f82601f83011261309f5761309e612aa1565b5b81356130af848260208601613023565b91505092915050565b5f5f604083850312156130ce576130cd612874565b5b5f83013567ffffffffffffffff8111156130eb576130ea612878565b5b6130f78582860161308b565b925050602083013567ffffffffffffffff81111561311857613117612878565b5b61312485828601612d66565b9150509250929050565b5f81519050919050565b5f82825260208201905092915050565b5f819050602082019050919050565b613160816128d6565b82525050565b5f6131718383613157565b60208301905092915050565b5f602082019050919050565b5f6131938261312e565b61319d8185613138565b93506131a883613148565b805f5b838110156131d85781516131bf8882613166565b97506131ca8361317d565b9250506001810190506131ab565b5085935050505092915050565b5f6020820190508181035f8301526131fd8184613189565b905092915050565b5f6020820190506132185f830184612ef7565b92915050565b613227816129ef565b8114613231575f5ffd5b50565b5f813590506132428161321e565b92915050565b5f5f6040838503121561325e5761325d612874565b5b5f61326b858286016128c2565b925050602061327c85828601613234565b9150509250929050565b5f5f5f5f6080858703121561329e5761329d612874565b5b5f6132ab878288016128c2565b94505060206132bc878288016128f5565b935050604085013567ffffffffffffffff8111156132dd576132dc612878565b5b6132e987828801612bb0565b925050606085013567ffffffffffffffff81111561330a57613309612878565b5b61331687828801612e04565b91505092959194509250565b5f5f6040838503121561333857613337612874565b5b5f613345858286016128c2565b9250506020613356858286016128c2565b9150509250929050565b5f5f5f5f5f60a0868803121561337957613378612874565b5b5f613386888289016128c2565b9550506020613397888289016128c2565b94505060406133a8888289016128f5565b93505060606133b9888289016128f5565b925050608086013567ffffffffffffffff8111156133da576133d9612878565b5b6133e688828901612e04565b9150509295509295909350565b5f6020828403121561340857613407612874565b5b5f613415848285016128c2565b91505092915050565b5f5f5f6060848603121561343557613434612874565b5b5f613442868287016128c2565b9350506020613453868287016128f5565b9250506040613464868287016128f5565b9150509250925092565b61347781612a22565b82525050565b5f6040820190506134905f830185612ef7565b61349d602083018461346e565b9392505050565b7f4e487b71000000000000000000000000000000000000000000000000000000005f52602260045260245ffd5b5f60028204905060018216806134e857607f821691505b6020821081036134fb576134fa6134a4565b5b50919050565b5f81905092915050565b5f819050815f5260205f209050919050565b5f8154613529816134d1565b6135338186613501565b9450600182165f811461354d576001811461356257613594565b60ff1983168652811515820286019350613594565b61356b8561350b565b5f5b8381101561358c5781548189015260018201915060208101905061356d565b838801955050505b50505092915050565b5f6135a8828561351d565b91506135b4828461351d565b91508190509392505050565b7f4e487b71000000000000000000000000000000000000000000000000000000005f52601160045260245ffd5b5f6135f7826128d6565b9150613602836128d6565b925082820190508082111561361a576136196135c0565b5b92915050565b7f4e487b71000000000000000000000000000000000000000000000000000000005f52603260045260245ffd5b5f6040820190506136605f830185612947565b61366d6020830184612947565b9392505050565b5f61367e826128d6565b9150613689836128d6565b9250828202613697816128d6565b915082820484148315176136ae576136ad6135c0565b5b5092915050565b7f4e487b71000000000000000000000000000000000000000000000000000000005f52601260045260245ffd5b5f6136ec826128d6565b91506136f7836128d6565b925082613707576137066136b5565b5b828204905092915050565b7f455243313135353a206d696e7420616d6f756e74206d75737420626520706f735f8201527f6974697665000000000000000000000000000000000000000000000000000000602082015250565b5f61376c602583612c2e565b915061377782613712565b604082019050919050565b5f6020820190508181035f83015261379981613760565b9050919050565b5f6137aa826128d6565b91507fffffffffffffffffffffffffffffffffffffffffffffffffffffffffffffffff82036137dc576137db6135c0565b5b600182019050919050565b5f6040820190506137fa5f830185612ef7565b6138076020830184612ef7565b9392505050565b5f81905092915050565b50565b5f6138265f8361380e565b915061383182613818565b5f82019050919050565b5f6138458261381b565b9150819050919050565b7f5769746864726177206661696c656400000000000000000000000000000000005f82015250565b5f613883600f83612c2e565b915061388e8261384f565b602082019050919050565b5f6020820190508181035f8301526138b081613877565b9050919050565b5f6020601f8301049050919050565b5f82821b905092915050565b5f600883026139017fffffffffffffffffffffffffffffffffffffffffffffffffffffffffffffffff826138c6565b61390b86836138c6565b95508019841693508086168417925050509392505050565b5f819050919050565b5f61394661394161393c846128d6565b613923565b6128d6565b9050919050565b5f819050919050565b61395f8361392c565b61397361396b8261394d565b8484546138d2565b825550505050565b5f5f905090565b61398a61397b565b613995818484613956565b505050565b5b818110156139b8576139ad5f82613982565b60018101905061399b565b5050565b601f8211156139fd576139ce8161350b565b6139d7846138b7565b810160208510156139e6578190505b6139fa6139f2856138b7565b83018261399a565b50505b505050565b5f82821c905092915050565b5f613a1d5f1984600802613a02565b1980831691505092915050565b5f613a358383613a0e565b9150826002028217905092915050565b613a4e82612c24565b67ffffffffffffffff811115613a6757613a66612ab9565b5b613a7182546134d1565b613a7c8282856139bc565b5f60209050601f831160018114613aad575f8415613a9b578287015190505b613aa58582613a2a565b865550613b0c565b601f198416613abb8661350b565b5f5b82811015613ae257848901518255600182019150602085019450602081019050613abd565b86831015613aff5784890151613afb601f891682613a0e565b8355505b6001600288020188555050505b505050505050565b7f416d6f756e74206d75737420626520706f7369746976650000000000000000005f82015250565b5f613b48601783612c2e565b9150613b5382613b14565b602082019050919050565b5f6020820190508181035f830152613b7581613b3c565b9050919050565b7f455243313135353a2063616c6c6572206973206e6f7420746f6b656e206f776e5f8201527f6572206f7220617070726f766564000000000000000000000000000000000000602082015250565b5f613bd6602e83612c2e565b9150613be182613b7c565b604082019050919050565b5f6020820190508181035f830152613c0381613bca565b9050919050565b5f613c24613c1f613c1a84612a22565b613923565b6128d6565b9050919050565b613c3481613c0a565b82525050565b5f604082019050613c4d5f830185613c2b565b613c5a6020830184612947565b9392505050565b5f81519050919050565b5f82825260208201905092915050565b5f613c8582613c61565b613c8f8185613c6b565b9350613c9f818560208601612c3e565b613ca881612aa9565b840191505092915050565b5f60a082019050613cc65f830188612ef7565b613cd36020830187612ef7565b613ce06040830186612947565b613ced6060830185612947565b8181036080830152613cff8184613c7b565b90509695505050505050565b5f81519050613d198161299a565b92915050565b5f60208284031215613d3457613d33612874565b5b5f613d4184828501613d0b565b91505092915050565b5f60a082019050613d5d5f830188612ef7565b613d6a6020830187612ef7565b8181036040830152613d7c8186613189565b90508181036060830152613d908185613189565b90508181036080830152613da48184613c7b565b90509695505050505050565b5f608082019050613dc35f830187612ef7565b613dd06020830186612947565b613ddd6040830185612947565b613dea6060830184612947565b95945050505050565b5f6040820190508181035f830152613e0b8185613189565b90508181036020830152613e1f8184613189565b9050939250505056fea2646970667358221220408cd98533bbbac0dd90e6851aa8981c1702cbe02136d05dcb7e2e5bd193ac7464736f6c634300081c0033",
    "linkReferences": {}
  },
  "methodIdentifiers": {
    "balanceOf(address,uint256)": "00fdd58e",
    "balanceOfBatch(address[],uint256[])": "4e1273f4",
    "burn(address,uint256,uint256)": "f5298aca",
    "contractURI()": "e8a3d485",
    "exists(uint256)": "4f558e79",
    "isApprovedForAll(address,address)": "e985e9c5",
    "mint(address,uint256,string,bytes)": "d2b04fd6",
    "mintBatch(address,uint256[],bytes)": "22862482",
    "name()": "06fdde03",
    "owner()": "8da5cb5b",
    "publicMint(uint256)": "2db11544",
    "renounceOwnership()": "715018a6",
    "royaltyInfo(uint256,uint256)": "2a55205a",
    "safeBatchTransferFrom(address,address,uint256[],uint256[],bytes)": "2eb2c2d6",
    "safeTransferFrom(address,address,uint256,uint256,bytes)": "f242432a",
    "setApprovalForAll(address,bool)": "a22cb465",
    "setContractURI(string)": "938e3d7b",
    "setRoyaltyInfo(address,uint96)": "02fa7c47",
    "setURI(string)": "02fe5305",
    "supportsInterface(bytes4)": "01ffc9a7",
    "symbol()": "95d89b41",
    "tokenBalance(address,uint256)": "6a55fff5",
    "totalSupply()": "18160ddd",
    "totalSupply(uint256)": "bd85b039",
    "transferOwnership(address)": "f2fde38b",
    "uri(uint256)": "0e89341c",
    "withdraw()": "3ccfd60b"
  },
  "id": 40
}