{
  "abi": [
    {
      "type": "constructor",
      "inputs": [
        {
          "name": "initialFeeRecipient",
          "type": "address",
          "internalType": "address"
        }
      ],
      "stateMutability": "nonpayable"
    },
    {
      "type": "function",
      "name": "auctionCounter",
      "inputs": [],
      "outputs": [
        {
          "name": "",
          "type": "uint256",
          "internalType": "uint256"
        }
      ],
      "stateMutability": "view"
    },
    {
      "type": "function",
      "name": "auctions",
      "inputs": [
        {
          "name": "",
          "type": "uint256",
          "internalType": "uint256"
        }
      ],
      "outputs": [
        {
          "name": "auctionId",
          "type": "uint256",
          "internalType": "uint256"
        },
        {
          "name": "seller",
          "type": "address",
          "internalType": "address"
        },
        {
          "name": "tokenAddress",
          "type": "address",
          "internalType": "address"
        },
        {
          "name": "tokenId",
          "type": "uint256",
          "internalType": "uint256"
        },
        {
          "name": "amount",
          "type": "uint256",
          "internalType": "uint256"
        },
        {
          "name": "startingPrice",
          "type": "uint256",
          "internalType": "uint256"
        },
        {
          "name": "highestBid",
          "type": "uint256",
          "internalType": "uint256"
        },
        {
          "name": "highestBidder",
          "type": "address",
          "internalType": "address"
        },
        {
          "name": "endTime",
          "type": "uint256",
          "internalType": "uint256"
        },
        {
          "name": "finalized",
          "type": "bool",
          "internalType": "bool"
        }
      ],
      "stateMutability": "view"
    },
    {
      "type": "function",
      "name": "batchBuy",
      "inputs": [
        {
          "name": "listingIds",
          "type": "uint256[]",
          "internalType": "uint256[]"
        },
        {
          "name": "amounts",
          "type": "uint256[]",
          "internalType": "uint256[]"
        }
      ],
      "outputs": [],
      "stateMutability": "payable"
    },
    {
      "type": "function",
      "name": "buyItem",
      "inputs": [
        {
          "name": "tokenId",
          "type": "uint256",
          "internalType": "uint256"
        },
        {
          "name": "amount",
          "type": "uint256",
          "internalType": "uint256"
        }
      ],
      "outputs": [],
      "stateMutability": "payable"
    },
    {
      "type": "function",
      "name": "createAuction",
      "inputs": [
        {
          "name": "tokenAddress",
          "type": "address",
          "internalType": "address"
        },
        {
          "name": "tokenId",
          "type": "uint256",
          "internalType": "uint256"
        },
        {
          "name": "amount",
          "type": "uint256",
          "internalType": "uint256"
        },
        {
          "name": "startingPrice",
          "type": "uint256",
          "internalType": "uint256"
        },
        {
          "name": "duration",
          "type": "uint256",
          "internalType": "uint256"
        }
      ],
      "outputs": [],
      "stateMutability": "nonpayable"
    },
    {
      "type": "function",
      "name": "feePercentage",
      "inputs": [],
      "outputs": [
        {
          "name": "",
          "type": "uint256",
          "internalType": "uint256"
        }
      ],
      "stateMutability": "view"
    },
    {
      "type": "function",
      "name": "feeRecipient",
      "inputs": [],
      "outputs": [
        {
          "name": "",
          "type": "address",
          "internalType": "address"
        }
      ],
      "stateMutability": "view"
    },
    {
      "type": "function",
      "name": "finalizeAuction",
      "inputs": [
        {
          "name": "auctionId",
          "type": "uint256",
          "internalType": "uint256"
        }
      ],
      "outputs": [],
      "stateMutability": "nonpayable"
    },
    {
      "type": "function",
      "name": "getListing",
      "inputs": [
        {
          "name": "listingId",
          "type": "uint256",
          "internalType": "uint256"
        }
      ],
      "outputs": [
        {
          "name": "listingId_",
          "type": "uint256",
          "internalType": "uint256"
        },
        {
          "name": "seller",
          "type": "address",
          "internalType": "address"
        },
        {
          "name": "tokenAddress",
          "type": "address",
          "internalType": "address"
        },
        {
          "name": "tokenId",
          "type": "uint256",
          "internalType": "uint256"
        },
        {
          "name": "amount",
          "type": "uint256",
          "internalType": "uint256"
        },
        {
          "name": "remaining",
          "type": "uint256",
          "internalType": "uint256"
        },
        {
          "name": "pricePerItem",
          "type": "uint256",
          "internalType": "uint256"
        },
        {
          "name": "isActive",
          "type": "bool",
          "internalType": "bool"
        }
      ],
      "stateMutability": "view"
    },
    {
      "type": "function",
      "name": "listItem",
      "inputs": [
        {
          "name": "tokenAddress",
          "type": "address",
          "internalType": "address"
        },
        {
          "name": "tokenId",
          "type": "uint256",
          "internalType": "uint256"
        },
        {
          "name": "amount",
          "type": "uint256",
          "internalType": "uint256"
        },
        {
          "name": "pricePerItem",
          "type": "uint256",
          "internalType": "uint256"
        }
      ],
      "outputs": [],
      "stateMutability": "nonpayable"
    },
    {
      "type": "function",
      "name": "listingCounter",
      "inputs": [],
      "outputs": [
        {
          "name": "",
          "type": "uint256",
          "internalType": "uint256"
        }
      ],
      "stateMutability": "view"
    },
    {
      "type": "function",
      "name": "listings",
      "inputs": [
        {
          "name": "",
          "type": "uint256",
          "internalType": "uint256"
        }
      ],
      "outputs": [
        {
          "name": "listingId",
          "type": "uint256",
          "internalType": "uint256"
        },
        {
          "name": "seller",
          "type": "address",
          "internalType": "address"
        },
        {
          "name": "tokenAddress",
          "type": "address",
          "internalType": "address"
        },
        {
          "name": "tokenId",
          "type": "uint256",
          "internalType": "uint256"
        },
        {
          "name": "amount",
          "type": "uint256",
          "internalType": "uint256"
        },
        {
          "name": "remaining",
          "type": "uint256",
          "internalType": "uint256"
        },
        {
          "name": "pricePerItem",
          "type": "uint256",
          "internalType": "uint256"
        },
        {
          "name": "isActive",
          "type": "bool",
          "internalType": "bool"
        }
      ],
      "stateMutability": "view"
    },
    {
      "type": "function",
      "name": "onERC1155BatchReceived",
      "inputs": [
        {
          "name": "",
          "type": "address",
          "internalType": "address"
        },
        {
          "name": "",
          "type": "address",
          "internalType": "address"
        },
        {
          "name": "",
          "type": "uint256[]",
          "internalType": "uint256[]"
        },
        {
          "name": "",
          "type": "uint256[]",
          "internalType": "uint256[]"
        },
        {
          "name": "",
          "type": "bytes",
          "internalType": "bytes"
        }
      ],
      "outputs": [
        {
          "name": "",
          "type": "bytes4",
          "internalType": "bytes4"
        }
      ],
      "stateMutability": "nonpayable"
    },
    {
      "type": "function",
      "name": "onERC1155Received",
      "inputs": [
        {
          "name": "",
          "type": "address",
          "internalType": "address"
        },
        {
          "name": "",
          "type": "address",
          "internalType": "address"
        },
        {
          "name": "",
          "type": "uint256",
          "internalType": "uint256"
        },
        {
          "name": "",
          "type": "uint256",
          "internalType": "uint256"
        },
        {
          "name": "",
          "type": "bytes",
          "internalType": "bytes"
        }
      ],
      "outputs": [
        {
          "name": "",
          "type": "bytes4",
          "internalType": "bytes4"
        }
      ],
      "stateMutability": "nonpayable"
    },
    {
      "type": "function",
      "name": "owner",
      "inputs": [],
      "outputs": [
        {
          "name": "",
          "type": "address",
          "internalType": "address"
        }
      ],
      "stateMutability": "view"
    },
    {
      "type": "function",
      "name": "pendingWithdrawals",
      "inputs": [
        {
          "name": "",
          "type": "address",
          "internalType": "address"
        }
      ],
      "outputs": [
        {
          "name": "",
          "type": "uint256",
          "internalType": "uint256"
        }
      ],
      "stateMutability": "view"
    },
    {
      "type": "function",
      "name": "placeBid",
      "inputs": [
        {
          "name": "auctionId",
          "type": "uint256",
          "internalType": "uint256"
        }
      ],
      "outputs": [],
      "stateMutability": "payable"
    },
    {
      "type": "function",
      "name": "renounceOwnership",
      "inputs": [],
      "outputs": [],
      "stateMutability": "nonpayable"
    },
    {
      "type": "function",
      "name": "setFeePercentage",
      "inputs": [
        {
          "name": "newFee",
          "type": "uint256",
          "internalType": "uint256"
        }
      ],
      "outputs": [],
      "stateMutability": "nonpayable"
    },
    {
      "type": "function",
      "name": "setFeeRecipient",
      "inputs": [
        {
          "name": "newRecipient",
          "type": "address",
          "internalType": "address"
        }
      ],
      "outputs": [],
      "stateMutability": "nonpayable"
    },
    {
      "type": "function",
      "name": "supportsInterface",
      "inputs": [
        {
          "name": "interfaceId",
          "type": "bytes4",
          "internalType": "bytes4"
        }
      ],
      "outputs": [
        {
          "name": "",
          "type": "bool",
          "internalType": "bool"
        }
      ],
      "stateMutability": "view"
    },
    {
      "type": "function",
      "name": "transferOwnership",
      "inputs": [
        {
          "name": "newOwner",
          "type": "address",
          "internalType": "address"
        }
      ],
      "outputs": [],
      "stateMutability": "nonpayable"
    },
    {
      "type": "function",
      "name": "withdrawFunds",
      "inputs": [],
      "outputs": [],
      "stateMutability": "nonpayable"
    },
    {
      "type": "event",
      "name": "AuctionCreated",
      "inputs": [
        {
          "name": "auctionId",
          "type": "uint256",
          "indexed": true,
          "internalType": "uint256"
        },
        {
          "name": "seller",
          "type": "address",
          "indexed": true,
          "internalType": "address"
        },
        {
          "name": "tokenAddress",
          "type": "address",
          "indexed": false,
          "internalType": "address"
        },
        {
          "name": "tokenId",
          "type": "uint256",
          "indexed": false,
          "internalType": "uint256"
        },
        {
          "name": "amount",
          "type": "uint256",
          "indexed": false,
          "internalType": "uint256"
        },
        {
          "name": "startingPrice",
          "type": "uint256",
          "indexed": false,
          "internalType": "uint256"
        },
        {
          "name": "duration",
          "type": "uint256",
          "indexed": false,
          "internalType": "uint256"
        }
      ],
      "anonymous": false
    },
    {
      "type": "event",
      "name": "AuctionFinalized",
      "inputs": [
        {
          "name": "auctionId",
          "type": "uint256",
          "indexed": true,
          "internalType": "uint256"
        },
        {
          "name": "winner",
          "type": "address",
          "indexed": false,
          "internalType": "address"
        },
        {
          "name": "finalPrice",
          "type": "uint256",
          "indexed": false,
          "internalType": "uint256"
        }
      ],
      "anonymous": false
    },
    {
      "type": "event",
      "name": "NFTListed",
      "inputs": [
        {
          "name": "listingId",
          "type": "uint256",
          "indexed": true,
          "internalType": "uint256"
        },
        {
          "name": "seller",
          "type": "address",
          "indexed": true,
          "internalType": "address"
        },
        {
          "name": "tokenAddress",
          "type": "address",
          "indexed": false,
          "internalType": "address"
        },
        {
          "name": "tokenId",
          "type": "uint256",
          "indexed": false,
          "internalType": "uint256"
        },
        {
          "name": "amount",
          "type": "uint256",
          "indexed": false,
          "internalType": "uint256"
        },
        {
          "name": "pricePerItem",
          "type": "uint256",
          "indexed": false,
          "internalType": "uint256"
        }
      ],
      "anonymous": false
    },
    {
      "type": "event",
      "name": "NFTSold",
      "inputs": [
        {
          "name": "listingId",
          "type": "uint256",
          "indexed": true,
          "internalType": "uint256"
        },
        {
          "name": "buyer",
          "type": "address",
          "indexed": true,
          "internalType": "address"
        },
        {
          "name": "amount",
          "type": "uint256",
          "indexed": false,
          "internalType": "uint256"
        },
        {
          "name": "totalPrice",
          "type": "uint256",
          "indexed": false,
          "internalType": "uint256"
        }
      ],
      "anonymous": false
    },
    {
      "type": "event",
      "name": "NewBid",
      "inputs": [
        {
          "name": "auctionId",
          "type": "uint256",
          "indexed": true,
          "internalType": "uint256"
        },
        {
          "name": "bidder",
          "type": "address",
          "indexed": true,
          "internalType": "address"
        },
        {
          "name": "bidAmount",
          "type": "uint256",
          "indexed": false,
          "internalType": "uint256"
        }
      ],
      "anonymous": false
    },
    {
      "type": "event",
      "name": "OwnershipTransferred",
      "inputs": [
        {
          "name": "previousOwner",
          "type": "address",
          "indexed": true,
          "internalType": "address"
        },
        {
          "name": "newOwner",
          "type": "address",
          "indexed": true,
          "internalType": "address"
        }
      ],
      "anonymous": false
    },
    {
      "type": "error",
      "name": "OwnableInvalidOwner",
      "inputs": [
        {
          "name": "owner",
          "type": "address",
          "internalType": "address"
        }
      ]
    },
    {
      "type": "error",
      "name": "OwnableUnauthorizedAccount",
      "inputs": [
        {
          "name": "account",
          "type": "address",
          "internalType": "address"
        }
      ]
    },
    {
      "type": "error",
      "name": "ReentrancyGuardReentrantCall",
      "inputs": []
    }
  ],
  "bytecode": {
    "object": "0x60806040526014600455348015610014575f5ffd5b5060405161427938038061427983398181016040528101906100369190610223565b335f73ffffffffffffffffffffffffffffffffffffffff168173ffffffffffffffffffffffffffffffffffffffff16036100a7575f6040517f1e4fbdf700000000000000000000000000000000000000000000000000000000815260040161009e919061025d565b60405180910390fd5b6100b68161010460201b60201c565b50600180819055508060055f6101000a81548173ffffffffffffffffffffffffffffffffffffffff021916908373ffffffffffffffffffffffffffffffffffffffff16021790555050610276565b5f5f5f9054906101000a900473ffffffffffffffffffffffffffffffffffffffff169050815f5f6101000a81548173ffffffffffffffffffffffffffffffffffffffff021916908373ffffffffffffffffffffffffffffffffffffffff1602179055508173ffffffffffffffffffffffffffffffffffffffff168173ffffffffffffffffffffffffffffffffffffffff167f8be0079c531659141344cd1fd0a4f28419497f9722a3daafe3b4186f6b6457e060405160405180910390a35050565b5f5ffd5b5f73ffffffffffffffffffffffffffffffffffffffff82169050919050565b5f6101f2826101c9565b9050919050565b610202816101e8565b811461020c575f5ffd5b50565b5f8151905061021d816101f9565b92915050565b5f60208284031215610238576102376101c5565b5b5f6102458482850161020f565b91505092915050565b610257816101e8565b82525050565b5f6020820190506102705f83018461024e565b92915050565b613ff6806102835f395ff3fe60806040526004361061013f575f3560e01c80639979ef45116100b5578063de74e57b1161006e578063de74e57b1461040d578063e74b981b14610450578063e808386314610478578063f23a6e61146104a0578063f2fde38b146104dc578063f3f43703146105045761013f565b80639979ef4514610311578063a001ecdd1461032d578063a7e7664414610357578063ae06c1b714610381578063bc197c81146103a9578063bcb143ef146103e55761013f565b80636c2c9c7d116101075780636c2c9c7d14610247578063715018a614610271578063723cdb1d146102875780638da5cb5b146102a3578063961c9ae4146102cd5780639979c009146102f55761013f565b806301ffc9a714610143578063107a274a1461017f57806324600fc3146101c257806346904840146101d8578063571a26a014610202575b5f5ffd5b34801561014e575f5ffd5b50610169600480360381019061016491906127fa565b610540565b604051610176919061283f565b60405180910390f35b34801561018a575f5ffd5b506101a560048036038101906101a0919061288b565b610551565b6040516101b9989796959493929190612904565b60405180910390f35b3480156101cd575f5ffd5b506101d661064a565b005b3480156101e3575f5ffd5b506101ec6107cb565b6040516101f99190612980565b60405180910390f35b34801561020d575f5ffd5b506102286004803603810190610223919061288b565b6107f0565b60405161023e9a99989796959493929190612999565b60405180910390f35b348015610252575f5ffd5b5061025b6108a9565b6040516102689190612a33565b60405180910390f35b34801561027c575f5ffd5b506102856108af565b005b6102a1600480360381019061029c9190612aad565b6108c2565b005b3480156102ae575f5ffd5b506102b7610eb6565b6040516102c49190612980565b60405180910390f35b3480156102d8575f5ffd5b506102f360048036038101906102ee9190612b55565b610edd565b005b61030f600480360381019061030a9190612bcc565b611233565b005b61032b6004803603810190610326919061288b565b61172a565b005b348015610338575f5ffd5b50610341611990565b60405161034e9190612a33565b60405180910390f35b348015610362575f5ffd5b5061036b611996565b6040516103789190612a33565b60405180910390f35b34801561038c575f5ffd5b506103a760048036038101906103a2919061288b565b61199c565b005b3480156103b4575f5ffd5b506103cf60048036038101906103ca9190612e02565b6119f2565b6040516103dc9190612edc565b60405180910390f35b3480156103f0575f5ffd5b5061040b60048036038101906104069190612ef5565b611a06565b005b348015610418575f5ffd5b50610433600480360381019061042e919061288b565b611d98565b604051610447989796959493929190612904565b60405180910390f35b34801561045b575f5ffd5b5061047660048036038101906104719190612f59565b611e26565b005b348015610483575f5ffd5b5061049e6004803603810190610499919061288b565b611edf565b005b3480156104ab575f5ffd5b506104c660048036038101906104c19190612f84565b6123d1565b6040516104d39190612edc565b60405180910390f35b3480156104e7575f5ffd5b5061050260048036038101906104fd9190612f59565b6123e5565b005b34801561050f575f5ffd5b5061052a60048036038101906105259190612f59565b612469565b6040516105379190612a33565b60405180910390f35b5f61054a8261247e565b9050919050565b5f5f5f5f5f5f5f5f5f8911801561056a57506002548911155b6105a9576040517f08c379a00000000000000000000000000000000000000000000000000000000081526004016105a090613071565b60405180910390fd5b5f60065f8b81526020019081526020015f209050805f0154816001015f9054906101000a900473ffffffffffffffffffffffffffffffffffffffff16826002015f9054906101000a900473ffffffffffffffffffffffffffffffffffffffff168360030154846004015485600501548660060154876007015f9054906101000a900460ff169850985098509850985098509850985050919395975091939597565b6106526124f7565b5f60085f3373ffffffffffffffffffffffffffffffffffffffff1673ffffffffffffffffffffffffffffffffffffffff1681526020019081526020015f205490505f81116106d5576040517f08c379a00000000000000000000000000000000000000000000000000000000081526004016106cc906130d9565b60405180910390fd5b5f60085f3373ffffffffffffffffffffffffffffffffffffffff1673ffffffffffffffffffffffffffffffffffffffff1681526020019081526020015f20819055505f3373ffffffffffffffffffffffffffffffffffffffff168260405161073c90613124565b5f6040518083038185875af1925050503d805f8114610776576040519150601f19603f3d011682016040523d82523d5f602084013e61077b565b606091505b50509050806107bf576040517f08c379a00000000000000000000000000000000000000000000000000000000081526004016107b690613182565b60405180910390fd5b50506107c961253d565b565b60055f9054906101000a900473ffffffffffffffffffffffffffffffffffffffff1681565b6007602052805f5260405f205f91509050805f015490806001015f9054906101000a900473ffffffffffffffffffffffffffffffffffffffff1690806002015f9054906101000a900473ffffffffffffffffffffffffffffffffffffffff1690806003015490806004015490806005015490806006015490806007015f9054906101000a900473ffffffffffffffffffffffffffffffffffffffff1690806008015490806009015f9054906101000a900460ff1690508a565b60025481565b6108b7612546565b6108c05f6125cd565b565b6108ca6124f7565b818190508484905014610912576040517f08c379a0000000000000000000000000000000000000000000000000000000008152600401610909906131ea565b60405180910390fd5b5f5f5f90505b85859050811015610a9f575f60065f88888581811061093a57610939613208565b5b9050602002013581526020019081526020015f209050806007015f9054906101000a900460ff166109a0576040517f08c379a00000000000000000000000000000000000000000000000000000000081526004016109979061327f565b60405180910390fd5b5f8585848181106109b4576109b3613208565b5b90506020020135116109fb576040517f08c379a00000000000000000000000000000000000000000000000000000000081526004016109f2906132e7565b60405180910390fd5b8060050154858584818110610a1357610a12613208565b5b905060200201351115610a5b576040517f08c379a0000000000000000000000000000000000000000000000000000000008152600401610a529061334f565b60405180910390fd5b848483818110610a6e57610a6d613208565b5b905060200201358160060154610a84919061339a565b83610a8f91906133db565b9250508080600101915050610918565b5080341015610ae3576040517f08c379a0000000000000000000000000000000000000000000000000000000008152600401610ada90613458565b60405180910390fd5b5f5f90505b85859050811015610de9575f868683818110610b0757610b06613208565b5b9050602002013590505f60065f8381526020019081526020015f2090505f868685818110610b3857610b37613208565b5b9050602002013590505f818360060154610b52919061339a565b905081836005015f828254610b679190613476565b925050819055505f836005015403610b95575f836007015f6101000a81548160ff0219169083151502179055505b826002015f9054906101000a900473ffffffffffffffffffffffffffffffffffffffff1673ffffffffffffffffffffffffffffffffffffffff1663f242432a30338660030154866040518563ffffffff1660e01b8152600401610bfb94939291906134d9565b5f604051808303815f87803b158015610c12575f5ffd5b505af1158015610c24573d5f5f3e3d5ffd5b505050505f5f610c5c856002015f9054906101000a900473ffffffffffffffffffffffffffffffffffffffff1686600301548561268e565b915091505f606460045485610c71919061339a565b610c7b919061355c565b90505f828286610c8b9190613476565b610c959190613476565b90508060085f896001015f9054906101000a900473ffffffffffffffffffffffffffffffffffffffff1673ffffffffffffffffffffffffffffffffffffffff1673ffffffffffffffffffffffffffffffffffffffff1681526020019081526020015f205f828254610d0691906133db565b925050819055508260085f8673ffffffffffffffffffffffffffffffffffffffff1673ffffffffffffffffffffffffffffffffffffffff1681526020019081526020015f205f828254610d5991906133db565b925050819055508160085f60055f9054906101000a900473ffffffffffffffffffffffffffffffffffffffff1673ffffffffffffffffffffffffffffffffffffffff1673ffffffffffffffffffffffffffffffffffffffff1681526020019081526020015f205f828254610dcd91906133db565b9250508190555050505050505050508080600101915050610ae8565b5080341115610ea7575f3373ffffffffffffffffffffffffffffffffffffffff168234610e169190613476565b604051610e2290613124565b5f6040518083038185875af1925050503d805f8114610e5c576040519150601f19603f3d011682016040523d82523d5f602084013e610e61565b606091505b5050905080610ea5576040517f08c379a0000000000000000000000000000000000000000000000000000000008152600401610e9c906135d6565b60405180910390fd5b505b50610eb061253d565b50505050565b5f5f5f9054906101000a900473ffffffffffffffffffffffffffffffffffffffff16905090565b610ee56124f7565b5f8590505f8211610f2b576040517f08c379a0000000000000000000000000000000000000000000000000000000008152600401610f229061363e565b60405180910390fd5b5f8411610f6d576040517f08c379a0000000000000000000000000000000000000000000000000000000008152600401610f64906136a6565b60405180910390fd5b8073ffffffffffffffffffffffffffffffffffffffff1663f242432a333088886040518563ffffffff1660e01b8152600401610fac94939291906134d9565b5f604051808303815f87803b158015610fc3575f5ffd5b505af1158015610fd5573d5f5f3e3d5ffd5b5050505060035f815480929190610feb906136c4565b919050555060405180610140016040528060035481526020013373ffffffffffffffffffffffffffffffffffffffff1681526020018773ffffffffffffffffffffffffffffffffffffffff1681526020018681526020018581526020018481526020015f81526020015f73ffffffffffffffffffffffffffffffffffffffff168152602001834261107c91906133db565b81526020015f151581525060075f60035481526020019081526020015f205f820151815f01556020820151816001015f6101000a81548173ffffffffffffffffffffffffffffffffffffffff021916908373ffffffffffffffffffffffffffffffffffffffff1602179055506040820151816002015f6101000a81548173ffffffffffffffffffffffffffffffffffffffff021916908373ffffffffffffffffffffffffffffffffffffffff160217905550606082015181600301556080820151816004015560a0820151816005015560c0820151816006015560e0820151816007015f6101000a81548173ffffffffffffffffffffffffffffffffffffffff021916908373ffffffffffffffffffffffffffffffffffffffff1602179055506101008201518160080155610120820151816009015f6101000a81548160ff0219169083151502179055509050503373ffffffffffffffffffffffffffffffffffffffff166003547fcaf0ae751fb2b122e8718bf7c0d4b7584d1418a853a4d0cdaba45418d3da138b888888888860405161121b95949392919061370b565b60405180910390a35061122c61253d565b5050505050565b61123b6124f7565b5f60065f8481526020019081526020015f209050806007015f9054906101000a900460ff1661129f576040517f08c379a00000000000000000000000000000000000000000000000000000000081526004016112969061327f565b60405180910390fd5b80600501548211156112e6576040517f08c379a00000000000000000000000000000000000000000000000000000000081526004016112dd906137a6565b60405180910390fd5b5f816002015f9054906101000a900473ffffffffffffffffffffffffffffffffffffffff1690505f82600601548461131e919061339a565b905080341015611363576040517f08c379a000000000000000000000000000000000000000000000000000000000815260040161135a90613458565b60405180910390fd5b5f606460045483611374919061339a565b61137e919061355c565b90505f5f6113b4866002015f9054906101000a900473ffffffffffffffffffffffffffffffffffffffff1687600301548661268e565b9150915080836113c491906133db565b841015611406576040517f08c379a00000000000000000000000000000000000000000000000000000000081526004016113fd9061380e565b60405180910390fd5b86866005015f8282546114199190613476565b925050819055505f866005015403611447575f866007015f6101000a81548160ff0219169083151502179055505b8473ffffffffffffffffffffffffffffffffffffffff1663f242432a303389600301548b6040518563ffffffff1660e01b815260040161148a94939291906134d9565b5f604051808303815f87803b1580156114a1575f5ffd5b505af11580156114b3573d5f5f3e3d5ffd5b505050508083856114c49190613476565b6114ce9190613476565b60085f886001015f9054906101000a900473ffffffffffffffffffffffffffffffffffffffff1673ffffffffffffffffffffffffffffffffffffffff1673ffffffffffffffffffffffffffffffffffffffff1681526020019081526020015f205f82825461153c91906133db565b925050819055508060085f8473ffffffffffffffffffffffffffffffffffffffff1673ffffffffffffffffffffffffffffffffffffffff1681526020019081526020015f205f82825461158f91906133db565b925050819055508260085f60055f9054906101000a900473ffffffffffffffffffffffffffffffffffffffff1673ffffffffffffffffffffffffffffffffffffffff1673ffffffffffffffffffffffffffffffffffffffff1681526020019081526020015f205f82825461160391906133db565b92505081905550833411156116c7575f3373ffffffffffffffffffffffffffffffffffffffff1685346116369190613476565b60405161164290613124565b5f6040518083038185875af1925050503d805f811461167c576040519150601f19603f3d011682016040523d82523d5f602084013e611681565b606091505b50509050806116c5576040517f08c379a00000000000000000000000000000000000000000000000000000000081526004016116bc906135d6565b60405180910390fd5b505b3373ffffffffffffffffffffffffffffffffffffffff16887fb91c1d5733a11add12a3fe79d34b64a351a845d7b07eba88230fbbc3802c690e898760405161171092919061382c565b60405180910390a350505050505061172661253d565b5050565b6117326124f7565b5f60075f8381526020019081526020015f2090508060080154421061178c576040517f08c379a00000000000000000000000000000000000000000000000000000000081526004016117839061389d565b60405180910390fd5b806006015434116117d2576040517f08c379a00000000000000000000000000000000000000000000000000000000081526004016117c990613905565b60405180910390fd5b8060050154341015611819576040517f08c379a00000000000000000000000000000000000000000000000000000000081526004016118109061396d565b60405180910390fd5b5f73ffffffffffffffffffffffffffffffffffffffff16816007015f9054906101000a900473ffffffffffffffffffffffffffffffffffffffff1673ffffffffffffffffffffffffffffffffffffffff16146118ea57806006015460085f836007015f9054906101000a900473ffffffffffffffffffffffffffffffffffffffff1673ffffffffffffffffffffffffffffffffffffffff1673ffffffffffffffffffffffffffffffffffffffff1681526020019081526020015f205f8282546118e291906133db565b925050819055505b34816006018190555033816007015f6101000a81548173ffffffffffffffffffffffffffffffffffffffff021916908373ffffffffffffffffffffffffffffffffffffffff1602179055503373ffffffffffffffffffffffffffffffffffffffff16827f558a0d5d5468d74b0db24c74eb348b42271c2ebb4c9e953ced38aaed95fa43613460405161197c9190612a33565b60405180910390a35061198d61253d565b50565b60045481565b60035481565b6119a4612546565b60198111156119e8576040517f08c379a00000000000000000000000000000000000000000000000000000000081526004016119df906139d5565b60405180910390fd5b8060048190555050565b5f63bc197c8160e01b905095945050505050565b611a0e6124f7565b5f8490505f8311611a54576040517f08c379a0000000000000000000000000000000000000000000000000000000008152600401611a4b90613a63565b60405180910390fd5b5f8211611a96576040517f08c379a0000000000000000000000000000000000000000000000000000000008152600401611a8d90613af1565b60405180910390fd5b8073ffffffffffffffffffffffffffffffffffffffff1663f242432a333087876040518563ffffffff1660e01b8152600401611ad594939291906134d9565b5f604051808303815f87803b158015611aec575f5ffd5b505af1925050508015611afd575060015b611bc157611b09613b1b565b806308c379a003611b845750611b1d613b3a565b80611b285750611b86565b80604051602001611b399190613c8b565b6040516020818303038152906040526040517f08c379a0000000000000000000000000000000000000000000000000000000008152600401611b7b9190613ce4565b60405180910390fd5b505b6040517f08c379a0000000000000000000000000000000000000000000000000000000008152600401611bb890613d9a565b60405180910390fd5b60025f815480929190611bd3906136c4565b919050555060405180610100016040528060025481526020013373ffffffffffffffffffffffffffffffffffffffff1681526020018673ffffffffffffffffffffffffffffffffffffffff1681526020018581526020018481526020018481526020018381526020016001151581525060065f8681526020019081526020015f205f820151815f01556020820151816001015f6101000a81548173ffffffffffffffffffffffffffffffffffffffff021916908373ffffffffffffffffffffffffffffffffffffffff1602179055506040820151816002015f6101000a81548173ffffffffffffffffffffffffffffffffffffffff021916908373ffffffffffffffffffffffffffffffffffffffff160217905550606082015181600301556080820151816004015560a0820151816005015560c0820151816006015560e0820151816007015f6101000a81548160ff0219169083151502179055509050503373ffffffffffffffffffffffffffffffffffffffff166002547ff33c76fec15a03b2e414df8c9dce93f5b05f8672742e0f1eb558b2161162dfcb87878787604051611d819493929190613db8565b60405180910390a350611d9261253d565b50505050565b6006602052805f5260405f205f91509050805f015490806001015f9054906101000a900473ffffffffffffffffffffffffffffffffffffffff1690806002015f9054906101000a900473ffffffffffffffffffffffffffffffffffffffff1690806003015490806004015490806005015490806006015490806007015f9054906101000a900460ff16905088565b611e2e612546565b5f73ffffffffffffffffffffffffffffffffffffffff168173ffffffffffffffffffffffffffffffffffffffff1603611e9c576040517f08c379a0000000000000000000000000000000000000000000000000000000008152600401611e9390613e45565b60405180910390fd5b8060055f6101000a81548173ffffffffffffffffffffffffffffffffffffffff021916908373ffffffffffffffffffffffffffffffffffffffff16021790555050565b611ee76124f7565b5f60075f8381526020019081526020015f2090508060080154421015611f42576040517f08c379a0000000000000000000000000000000000000000000000000000000008152600401611f3990613ead565b60405180910390fd5b806009015f9054906101000a900460ff1615611f93576040517f08c379a0000000000000000000000000000000000000000000000000000000008152600401611f8a90613f15565b60405180910390fd5b6001816009015f6101000a81548160ff0219169083151502179055505f816002015f9054906101000a900473ffffffffffffffffffffffffffffffffffffffff1690505f73ffffffffffffffffffffffffffffffffffffffff16826007015f9054906101000a900473ffffffffffffffffffffffffffffffffffffffff1673ffffffffffffffffffffffffffffffffffffffff161461232c575f826006015490505f606460045483612045919061339a565b61204f919061355c565b90505f5f612085866002015f9054906101000a900473ffffffffffffffffffffffffffffffffffffffff1687600301548661268e565b91509150808361209591906133db565b8410156120d7576040517f08c379a00000000000000000000000000000000000000000000000000000000081526004016120ce9061380e565b60405180910390fd5b5f8184866120e59190613476565b6120ef9190613476565b90508573ffffffffffffffffffffffffffffffffffffffff1663f242432a30896007015f9054906101000a900473ffffffffffffffffffffffffffffffffffffffff168a600301548b600401546040518563ffffffff1660e01b815260040161215b94939291906134d9565b5f604051808303815f87803b158015612172575f5ffd5b505af1158015612184573d5f5f3e3d5ffd5b505050508060085f896001015f9054906101000a900473ffffffffffffffffffffffffffffffffffffffff1673ffffffffffffffffffffffffffffffffffffffff1673ffffffffffffffffffffffffffffffffffffffff1681526020019081526020015f205f8282546121f791906133db565b925050819055508160085f8573ffffffffffffffffffffffffffffffffffffffff1673ffffffffffffffffffffffffffffffffffffffff1681526020019081526020015f205f82825461224a91906133db565b925050819055508360085f60055f9054906101000a900473ffffffffffffffffffffffffffffffffffffffff1673ffffffffffffffffffffffffffffffffffffffff1673ffffffffffffffffffffffffffffffffffffffff1681526020019081526020015f205f8282546122be91906133db565b92505081905550877f4d9113a1377d665eaa1f9168a9c9080f2e488cb820b10149de3d6d2e0f2780c7886007015f9054906101000a900473ffffffffffffffffffffffffffffffffffffffff168760405161231a929190613f33565b60405180910390a250505050506123c4565b8073ffffffffffffffffffffffffffffffffffffffff1663f242432a30846001015f9054906101000a900473ffffffffffffffffffffffffffffffffffffffff16856003015486600401546040518563ffffffff1660e01b815260040161239694939291906134d9565b5f604051808303815f87803b1580156123ad575f5ffd5b505af11580156123bf573d5f5f3e3d5ffd5b505050505b50506123ce61253d565b50565b5f63f23a6e6160e01b905095945050505050565b6123ed612546565b5f73ffffffffffffffffffffffffffffffffffffffff168173ffffffffffffffffffffffffffffffffffffffff160361245d575f6040517f1e4fbdf70000000000000000000000000000000000000000000000000000000081526004016124549190612980565b60405180910390fd5b612466816125cd565b50565b6008602052805f5260405f205f915090505481565b5f7f4e2312e0000000000000000000000000000000000000000000000000000000007bffffffffffffffffffffffffffffffffffffffffffffffffffffffff1916827bffffffffffffffffffffffffffffffffffffffffffffffffffffffff191614806124f057506124ef82612724565b5b9050919050565b600260015403612533576040517f3ee5aeb500000000000000000000000000000000000000000000000000000000815260040160405180910390fd5b6002600181905550565b60018081905550565b61254e61278d565b73ffffffffffffffffffffffffffffffffffffffff1661256c610eb6565b73ffffffffffffffffffffffffffffffffffffffff16146125cb5761258f61278d565b6040517f118cdaa70000000000000000000000000000000000000000000000000000000081526004016125c29190612980565b60405180910390fd5b565b5f5f5f9054906101000a900473ffffffffffffffffffffffffffffffffffffffff169050815f5f6101000a81548173ffffffffffffffffffffffffffffffffffffffff021916908373ffffffffffffffffffffffffffffffffffffffff1602179055508173ffffffffffffffffffffffffffffffffffffffff168173ffffffffffffffffffffffffffffffffffffffff167f8be0079c531659141344cd1fd0a4f28419497f9722a3daafe3b4186f6b6457e060405160405180910390a35050565b5f5f8473ffffffffffffffffffffffffffffffffffffffff16632a55205a85856040518363ffffffff1660e01b81526004016126cb92919061382c565b6040805180830381865afa92505050801561270457506040513d601f19601f820116820180604052508101906127019190613f82565b60015b612713575f5f9150915061271c565b81819350935050505b935093915050565b5f7f01ffc9a7000000000000000000000000000000000000000000000000000000007bffffffffffffffffffffffffffffffffffffffffffffffffffffffff1916827bffffffffffffffffffffffffffffffffffffffffffffffffffffffff1916149050919050565b5f33905090565b5f604051905090565b5f5ffd5b5f5ffd5b5f7fffffffff0000000000000000000000000000000000000000000000000000000082169050919050565b6127d9816127a5565b81146127e3575f5ffd5b50565b5f813590506127f4816127d0565b92915050565b5f6020828403121561280f5761280e61279d565b5b5f61281c848285016127e6565b91505092915050565b5f8115159050919050565b61283981612825565b82525050565b5f6020820190506128525f830184612830565b92915050565b5f819050919050565b61286a81612858565b8114612874575f5ffd5b50565b5f8135905061288581612861565b92915050565b5f602082840312156128a05761289f61279d565b5b5f6128ad84828501612877565b91505092915050565b6128bf81612858565b82525050565b5f73ffffffffffffffffffffffffffffffffffffffff82169050919050565b5f6128ee826128c5565b9050919050565b6128fe816128e4565b82525050565b5f610100820190506129185f83018b6128b6565b612925602083018a6128f5565b61293260408301896128f5565b61293f60608301886128b6565b61294c60808301876128b6565b61295960a08301866128b6565b61296660c08301856128b6565b61297360e0830184612830565b9998505050505050505050565b5f6020820190506129935f8301846128f5565b92915050565b5f610140820190506129ad5f83018d6128b6565b6129ba602083018c6128f5565b6129c7604083018b6128f5565b6129d4606083018a6128b6565b6129e160808301896128b6565b6129ee60a08301886128b6565b6129fb60c08301876128b6565b612a0860e08301866128f5565b612a166101008301856128b6565b612a24610120830184612830565b9b9a5050505050505050505050565b5f602082019050612a465f8301846128b6565b92915050565b5f5ffd5b5f5ffd5b5f5ffd5b5f5f83601f840112612a6d57612a6c612a4c565b5b8235905067ffffffffffffffff811115612a8a57612a89612a50565b5b602083019150836020820283011115612aa657612aa5612a54565b5b9250929050565b5f5f5f5f60408587031215612ac557612ac461279d565b5b5f85013567ffffffffffffffff811115612ae257612ae16127a1565b5b612aee87828801612a58565b9450945050602085013567ffffffffffffffff811115612b1157612b106127a1565b5b612b1d87828801612a58565b925092505092959194509250565b612b34816128e4565b8114612b3e575f5ffd5b50565b5f81359050612b4f81612b2b565b92915050565b5f5f5f5f5f60a08688031215612b6e57612b6d61279d565b5b5f612b7b88828901612b41565b9550506020612b8c88828901612877565b9450506040612b9d88828901612877565b9350506060612bae88828901612877565b9250506080612bbf88828901612877565b9150509295509295909350565b5f5f60408385031215612be257612be161279d565b5b5f612bef85828601612877565b9250506020612c0085828601612877565b9150509250929050565b5f601f19601f8301169050919050565b7f4e487b71000000000000000000000000000000000000000000000000000000005f52604160045260245ffd5b612c5082612c0a565b810181811067ffffffffffffffff82111715612c6f57612c6e612c1a565b5b80604052505050565b5f612c81612794565b9050612c8d8282612c47565b919050565b5f67ffffffffffffffff821115612cac57612cab612c1a565b5b602082029050602081019050919050565b5f612ccf612cca84612c92565b612c78565b90508083825260208201905060208402830185811115612cf257612cf1612a54565b5b835b81811015612d1b5780612d078882612877565b845260208401935050602081019050612cf4565b5050509392505050565b5f82601f830112612d3957612d38612a4c565b5b8135612d49848260208601612cbd565b91505092915050565b5f5ffd5b5f67ffffffffffffffff821115612d7057612d6f612c1a565b5b612d7982612c0a565b9050602081019050919050565b828183375f83830152505050565b5f612da6612da184612d56565b612c78565b905082815260208101848484011115612dc257612dc1612d52565b5b612dcd848285612d86565b509392505050565b5f82601f830112612de957612de8612a4c565b5b8135612df9848260208601612d94565b91505092915050565b5f5f5f5f5f60a08688031215612e1b57612e1a61279d565b5b5f612e2888828901612b41565b9550506020612e3988828901612b41565b945050604086013567ffffffffffffffff811115612e5a57612e596127a1565b5b612e6688828901612d25565b935050606086013567ffffffffffffffff811115612e8757612e866127a1565b5b612e9388828901612d25565b925050608086013567ffffffffffffffff811115612eb457612eb36127a1565b5b612ec088828901612dd5565b9150509295509295909350565b612ed6816127a5565b82525050565b5f602082019050612eef5f830184612ecd565b92915050565b5f5f5f5f60808587031215612f0d57612f0c61279d565b5b5f612f1a87828801612b41565b9450506020612f2b87828801612877565b9350506040612f3c87828801612877565b9250506060612f4d87828801612877565b91505092959194509250565b5f60208284031215612f6e57612f6d61279d565b5b5f612f7b84828501612b41565b91505092915050565b5f5f5f5f5f60a08688031215612f9d57612f9c61279d565b5b5f612faa88828901612b41565b9550506020612fbb88828901612b41565b9450506040612fcc88828901612877565b9350506060612fdd88828901612877565b925050608086013567ffffffffffffffff811115612ffe57612ffd6127a1565b5b61300a88828901612dd5565b9150509295509295909350565b5f82825260208201905092915050565b7f496e76616c6964206c697374696e6720494400000000000000000000000000005f82015250565b5f61305b601283613017565b915061306682613027565b602082019050919050565b5f6020820190508181035f8301526130888161304f565b9050919050565b7f4e6f2066756e647320617661696c61626c6500000000000000000000000000005f82015250565b5f6130c3601283613017565b91506130ce8261308f565b602082019050919050565b5f6020820190508181035f8301526130f0816130b7565b9050919050565b5f81905092915050565b50565b5f61310f5f836130f7565b915061311a82613101565b5f82019050919050565b5f61312e82613104565b9150819050919050565b7f5472616e73666572206661696c656400000000000000000000000000000000005f82015250565b5f61316c600f83613017565b915061317782613138565b602082019050919050565b5f6020820190508181035f83015261319981613160565b9050919050565b7f4172726179206c656e677468206d69736d6174636800000000000000000000005f82015250565b5f6131d4601583613017565b91506131df826131a0565b602082019050919050565b5f6020820190508181035f830152613201816131c8565b9050919050565b7f4e487b71000000000000000000000000000000000000000000000000000000005f52603260045260245ffd5b7f4c697374696e6720696e616374697665000000000000000000000000000000005f82015250565b5f613269601083613017565b915061327482613235565b602082019050919050565b5f6020820190508181035f8301526132968161325d565b9050919050565b7f5a65726f20616d6f756e740000000000000000000000000000000000000000005f82015250565b5f6132d1600b83613017565b91506132dc8261329d565b602082019050919050565b5f6020820190508181035f8301526132fe816132c5565b9050919050565b7f4578636565647320617661696c61626c650000000000000000000000000000005f82015250565b5f613339601183613017565b915061334482613305565b602082019050919050565b5f6020820190508181035f8301526133668161332d565b9050919050565b7f4e487b71000000000000000000000000000000000000000000000000000000005f52601160045260245ffd5b5f6133a482612858565b91506133af83612858565b92508282026133bd81612858565b915082820484148315176133d4576133d361336d565b5b5092915050565b5f6133e582612858565b91506133f083612858565b92508282019050808211156134085761340761336d565b5b92915050565b7f496e73756666696369656e742066756e647300000000000000000000000000005f82015250565b5f613442601283613017565b915061344d8261340e565b602082019050919050565b5f6020820190508181035f83015261346f81613436565b9050919050565b5f61348082612858565b915061348b83612858565b92508282039050818111156134a3576134a261336d565b5b92915050565b5f82825260208201905092915050565b5f6134c45f836134a9565b91506134cf82613101565b5f82019050919050565b5f60a0820190506134ec5f8301876128f5565b6134f960208301866128f5565b61350660408301856128b6565b61351360608301846128b6565b8181036080830152613524816134b9565b905095945050505050565b7f4e487b71000000000000000000000000000000000000000000000000000000005f52601260045260245ffd5b5f61356682612858565b915061357183612858565b9250826135815761358061352f565b5b828204905092915050565b7f526566756e64206661696c6564000000000000000000000000000000000000005f82015250565b5f6135c0600d83613017565b91506135cb8261358c565b602082019050919050565b5f6020820190508181035f8301526135ed816135b4565b9050919050565b7f496e76616c6964206475726174696f6e000000000000000000000000000000005f82015250565b5f613628601083613017565b9150613633826135f4565b602082019050919050565b5f6020820190508181035f8301526136558161361c565b9050919050565b7f496e76616c696420616d6f756e740000000000000000000000000000000000005f82015250565b5f613690600e83613017565b915061369b8261365c565b602082019050919050565b5f6020820190508181035f8301526136bd81613684565b9050919050565b5f6136ce82612858565b91507fffffffffffffffffffffffffffffffffffffffffffffffffffffffffffffffff8203613700576136ff61336d565b5b600182019050919050565b5f60a08201905061371e5f8301886128f5565b61372b60208301876128b6565b61373860408301866128b6565b61374560608301856128b6565b61375260808301846128b6565b9695505050505050565b7f496e73756666696369656e74207175616e7469747900000000000000000000005f82015250565b5f613790601583613017565b915061379b8261375c565b602082019050919050565b5f6020820190508181035f8301526137bd81613784565b9050919050565b7f496e76616c6964206665652063616c63756c6174696f6e0000000000000000005f82015250565b5f6137f8601783613017565b9150613803826137c4565b602082019050919050565b5f6020820190508181035f830152613825816137ec565b9050919050565b5f60408201905061383f5f8301856128b6565b61384c60208301846128b6565b9392505050565b7f41756374696f6e20656e646564000000000000000000000000000000000000005f82015250565b5f613887600d83613017565b915061389282613853565b602082019050919050565b5f6020820190508181035f8301526138b48161387b565b9050919050565b7f42696420746f6f206c6f770000000000000000000000000000000000000000005f82015250565b5f6138ef600b83613017565b91506138fa826138bb565b602082019050919050565b5f6020820190508181035f83015261391c816138e3565b9050919050565b7f42656c6f77207374617274696e672070726963650000000000000000000000005f82015250565b5f613957601483613017565b915061396282613923565b602082019050919050565b5f6020820190508181035f8301526139848161394b565b9050919050565b7f4665652063616e6e6f74206578636565642032352500000000000000000000005f82015250565b5f6139bf601583613017565b91506139ca8261398b565b602082019050919050565b5f6020820190508181035f8301526139ec816139b3565b9050919050565b7f455243313135354d61726b6574706c6163653a20416d6f756e74206d757374205f8201527f6265203e20300000000000000000000000000000000000000000000000000000602082015250565b5f613a4d602683613017565b9150613a58826139f3565b604082019050919050565b5f6020820190508181035f830152613a7a81613a41565b9050919050565b7f455243313135354d61726b6574706c6163653a205072696365206d75737420625f8201527f65203e2030000000000000000000000000000000000000000000000000000000602082015250565b5f613adb602583613017565b9150613ae682613a81565b604082019050919050565b5f6020820190508181035f830152613b0881613acf565b9050919050565b5f8160e01c9050919050565b5f60033d1115613b375760045f5f3e613b345f51613b0f565b90505b90565b5f60443d10613bc657613b4b612794565b60043d036004823e80513d602482011167ffffffffffffffff82111715613b73575050613bc6565b808201805167ffffffffffffffff811115613b915750505050613bc6565b80602083010160043d038501811115613bae575050505050613bc6565b613bbd82602001850186612c47565b82955050505050505b90565b5f81905092915050565b7f455243313135354d61726b6574706c6163653a205472616e73666572206661695f8201527f6c6564202d200000000000000000000000000000000000000000000000000000602082015250565b5f613c2d602683613bc9565b9150613c3882613bd3565b602682019050919050565b5f81519050919050565b8281835e5f83830152505050565b5f613c6582613c43565b613c6f8185613bc9565b9350613c7f818560208601613c4d565b80840191505092915050565b5f613c9582613c21565b9150613ca18284613c5b565b915081905092915050565b5f613cb682613c43565b613cc08185613017565b9350613cd0818560208601613c4d565b613cd981612c0a565b840191505092915050565b5f6020820190508181035f830152613cfc8184613cac565b905092915050565b7f455243313135354d61726b6574706c6163653a20546f6b656e207472616e73665f8201527f6572206661696c65642e20436865636b2062616c616e636520616e642061707060208201527f726f76616c2e0000000000000000000000000000000000000000000000000000604082015250565b5f613d84604683613017565b9150613d8f82613d04565b606082019050919050565b5f6020820190508181035f830152613db181613d78565b9050919050565b5f608082019050613dcb5f8301876128f5565b613dd860208301866128b6565b613de560408301856128b6565b613df260608301846128b6565b95945050505050565b7f496e76616c6964206164647265737300000000000000000000000000000000005f82015250565b5f613e2f600f83613017565b9150613e3a82613dfb565b602082019050919050565b5f6020820190508181035f830152613e5c81613e23565b9050919050565b7f41756374696f6e206f6e676f696e6700000000000000000000000000000000005f82015250565b5f613e97600f83613017565b9150613ea282613e63565b602082019050919050565b5f6020820190508181035f830152613ec481613e8b565b9050919050565b7f416c72656164792066696e616c697a65640000000000000000000000000000005f82015250565b5f613eff601183613017565b9150613f0a82613ecb565b602082019050919050565b5f6020820190508181035f830152613f2c81613ef3565b9050919050565b5f604082019050613f465f8301856128f5565b613f5360208301846128b6565b9392505050565b5f81519050613f6881612b2b565b92915050565b5f81519050613f7c81612861565b92915050565b5f5f60408385031215613f9857613f9761279d565b5b5f613fa585828601613f5a565b9250506020613fb685828601613f6e565b915050925092905056fea264697066735822122090ff64a7c2d0adcc8886b132a27cf35cb3eb99d4fd9c54936fcf9e9776539f9264736f6c634300081c0033",
    "linkReferences": {}
  },
  "methodIdentifiers": {
    "auctionCounter()": "a7e76644",
    "auctions(uint256)": "571a26a0",
    "batchBuy(uint256[],uint256[])": "723cdb1d",
    "buyItem(uint256,uint256)": "9979c009",
    "createAuction(address,uint256,uint256,uint256,uint256)": "961c9ae4",
    "feePercentage()": "a001ecdd",
    "feeRecipient()": "46904840",
    "finalizeAuction(uint256)": "e8083863",
    "getListing(uint256)": "107a274a",
    "listItem(address,uint256,uint256,uint256)": "bcb143ef",
    "listingCounter()": "6c2c9c7d",
    "listings(uint256)": "de74e57b",
    "onERC1155BatchReceived(address,address,uint256[],uint256[],bytes)": "bc197c81",
    "onERC1155Received(address,address,uint256,uint256,bytes)": "f23a6e61",
    "owner()": "8da5cb5b",
    "pendingWithdrawals(address)": "f3f43703",
    "placeBid(uint256)": "9979ef45",
    "renounceOwnership()": "715018a6",
    "setFeePercentage(uint256)": "ae06c1b7",
    "setFeeRecipient(address)": "e74b981b",
    "supportsInterface(bytes4)": "01ffc9a7",
    "transferOwnership(address)": "f2fde38b",
    "withdrawFunds()": "24600fc3"
  },
  "id": 41
}